{
  "contractName": "WFILFactory",
  "abi": [
    {
      "inputs": [
        {
          "internalType": "address",
          "name": "wfil_",
          "type": "address"
        },
        {
          "internalType": "address",
          "name": "owner_",
          "type": "address"
        }
      ],
      "stateMutability": "nonpayable",
      "type": "constructor"
    },
    {
      "anonymous": false,
      "inputs": [
        {
          "indexed": true,
          "internalType": "uint256",
          "name": "nonce",
          "type": "uint256"
        },
        {
          "indexed": true,
          "internalType": "address",
          "name": "requester",
          "type": "address"
        },
        {
          "indexed": false,
          "internalType": "uint256",
          "name": "amount",
          "type": "uint256"
        },
        {
          "indexed": false,
          "internalType": "string",
          "name": "deposit",
          "type": "string"
        },
        {
          "indexed": false,
          "internalType": "string",
          "name": "txId",
          "type": "string"
        },
        {
          "indexed": false,
          "internalType": "uint256",
          "name": "timestamp",
          "type": "uint256"
        },
        {
          "indexed": false,
          "internalType": "bytes32",
          "name": "inputRequestHash",
          "type": "bytes32"
        }
      ],
      "name": "BurnConfirmed",
      "type": "event"
    },
    {
      "anonymous": false,
      "inputs": [
        {
          "indexed": true,
          "internalType": "uint256",
          "name": "nonce",
          "type": "uint256"
        },
        {
          "indexed": true,
          "internalType": "address",
          "name": "requester",
          "type": "address"
        },
        {
          "indexed": false,
          "internalType": "uint256",
          "name": "amount",
          "type": "uint256"
        },
        {
          "indexed": false,
          "internalType": "string",
          "name": "deposit",
          "type": "string"
        },
        {
          "indexed": false,
          "internalType": "uint256",
          "name": "timestamp",
          "type": "uint256"
        },
        {
          "indexed": false,
          "internalType": "bytes32",
          "name": "requestHash",
          "type": "bytes32"
        }
      ],
      "name": "Burned",
      "type": "event"
    },
    {
      "anonymous": false,
      "inputs": [
        {
          "indexed": true,
          "internalType": "address",
          "name": "merchant",
          "type": "address"
        },
        {
          "indexed": true,
          "internalType": "address",
          "name": "custodian",
          "type": "address"
        },
        {
          "indexed": false,
          "internalType": "string",
          "name": "deposit",
          "type": "string"
        }
      ],
      "name": "CustodianDepositSet",
      "type": "event"
    },
    {
      "anonymous": false,
      "inputs": [
        {
          "indexed": true,
          "internalType": "address",
          "name": "merchant",
          "type": "address"
        },
        {
          "indexed": false,
          "internalType": "string",
          "name": "deposit",
          "type": "string"
        }
      ],
      "name": "MerchantDepositSet",
      "type": "event"
    },
    {
      "anonymous": false,
      "inputs": [
        {
          "indexed": true,
          "internalType": "uint256",
          "name": "nonce",
          "type": "uint256"
        },
        {
          "indexed": true,
          "internalType": "address",
          "name": "requester",
          "type": "address"
        },
        {
          "indexed": false,
          "internalType": "uint256",
          "name": "amount",
          "type": "uint256"
        },
        {
          "indexed": false,
          "internalType": "string",
          "name": "deposit",
          "type": "string"
        },
        {
          "indexed": false,
          "internalType": "string",
          "name": "txId",
          "type": "string"
        },
        {
          "indexed": false,
          "internalType": "uint256",
          "name": "timestamp",
          "type": "uint256"
        },
        {
          "indexed": false,
          "internalType": "bytes32",
          "name": "requestHash",
          "type": "bytes32"
        }
      ],
      "name": "MintConfirmed",
      "type": "event"
    },
    {
      "anonymous": false,
      "inputs": [
        {
          "indexed": true,
          "internalType": "uint256",
          "name": "nonce",
          "type": "uint256"
        },
        {
          "indexed": true,
          "internalType": "address",
          "name": "requester",
          "type": "address"
        },
        {
          "indexed": false,
          "internalType": "uint256",
          "name": "amount",
          "type": "uint256"
        },
        {
          "indexed": false,
          "internalType": "string",
          "name": "deposit",
          "type": "string"
        },
        {
          "indexed": false,
          "internalType": "string",
          "name": "txId",
          "type": "string"
        },
        {
          "indexed": false,
          "internalType": "uint256",
          "name": "timestamp",
          "type": "uint256"
        },
        {
          "indexed": false,
          "internalType": "bytes32",
          "name": "requestHash",
          "type": "bytes32"
        }
      ],
      "name": "MintRejected",
      "type": "event"
    },
    {
      "anonymous": false,
      "inputs": [
        {
          "indexed": true,
          "internalType": "uint256",
          "name": "nonce",
          "type": "uint256"
        },
        {
          "indexed": true,
          "internalType": "address",
          "name": "requester",
          "type": "address"
        },
        {
          "indexed": false,
          "internalType": "uint256",
          "name": "amount",
          "type": "uint256"
        },
        {
          "indexed": false,
          "internalType": "string",
          "name": "deposit",
          "type": "string"
        },
        {
          "indexed": false,
          "internalType": "string",
          "name": "txId",
          "type": "string"
        },
        {
          "indexed": false,
          "internalType": "uint256",
          "name": "timestamp",
          "type": "uint256"
        },
        {
          "indexed": false,
          "internalType": "bytes32",
          "name": "requestHash",
          "type": "bytes32"
        }
      ],
      "name": "MintRequestAdd",
      "type": "event"
    },
    {
      "anonymous": false,
      "inputs": [
        {
          "indexed": true,
          "internalType": "uint256",
          "name": "nonce",
          "type": "uint256"
        },
        {
          "indexed": true,
          "internalType": "address",
          "name": "requester",
          "type": "address"
        },
        {
          "indexed": false,
          "internalType": "bytes32",
          "name": "requestHash",
          "type": "bytes32"
        }
      ],
      "name": "MintRequestCancel",
      "type": "event"
    },
    {
      "anonymous": false,
      "inputs": [
        {
          "indexed": true,
          "internalType": "address",
          "name": "previousOwner",
          "type": "address"
        },
        {
          "indexed": true,
          "internalType": "address",
          "name": "newOwner",
          "type": "address"
        }
      ],
      "name": "OwnerChanged",
      "type": "event"
    },
    {
      "anonymous": false,
      "inputs": [
        {
          "indexed": false,
          "internalType": "address",
          "name": "account",
          "type": "address"
        }
      ],
      "name": "Paused",
      "type": "event"
    },
    {
      "anonymous": false,
      "inputs": [
        {
          "indexed": true,
          "internalType": "bytes32",
          "name": "role",
          "type": "bytes32"
        },
        {
          "indexed": true,
          "internalType": "bytes32",
          "name": "previousAdminRole",
          "type": "bytes32"
        },
        {
          "indexed": true,
          "internalType": "bytes32",
          "name": "newAdminRole",
          "type": "bytes32"
        }
      ],
      "name": "RoleAdminChanged",
      "type": "event"
    },
    {
      "anonymous": false,
      "inputs": [
        {
          "indexed": true,
          "internalType": "bytes32",
          "name": "role",
          "type": "bytes32"
        },
        {
          "indexed": true,
          "internalType": "address",
          "name": "account",
          "type": "address"
        },
        {
          "indexed": true,
          "internalType": "address",
          "name": "sender",
          "type": "address"
        }
      ],
      "name": "RoleGranted",
      "type": "event"
    },
    {
      "anonymous": false,
      "inputs": [
        {
          "indexed": true,
          "internalType": "bytes32",
          "name": "role",
          "type": "bytes32"
        },
        {
          "indexed": true,
          "internalType": "address",
          "name": "account",
          "type": "address"
        },
        {
          "indexed": true,
          "internalType": "address",
          "name": "sender",
          "type": "address"
        }
      ],
      "name": "RoleRevoked",
      "type": "event"
    },
    {
      "anonymous": false,
      "inputs": [
        {
          "indexed": true,
          "internalType": "contract IERC20",
          "name": "token",
          "type": "address"
        },
        {
          "indexed": false,
          "internalType": "uint256",
          "name": "amount",
          "type": "uint256"
        }
      ],
      "name": "TokenClaimed",
      "type": "event"
    },
    {
      "anonymous": false,
      "inputs": [
        {
          "indexed": false,
          "internalType": "address",
          "name": "account",
          "type": "address"
        }
      ],
      "name": "Unpaused",
      "type": "event"
    },
    {
      "stateMutability": "nonpayable",
      "type": "fallback"
    },
    {
      "inputs": [],
      "name": "CUSTODIAN_ROLE",
      "outputs": [
        {
          "internalType": "bytes32",
          "name": "",
          "type": "bytes32"
        }
      ],
      "stateMutability": "view",
      "type": "function",
      "constant": true
    },
    {
      "inputs": [],
      "name": "DEFAULT_ADMIN_ROLE",
      "outputs": [
        {
          "internalType": "bytes32",
          "name": "",
          "type": "bytes32"
        }
      ],
      "stateMutability": "view",
      "type": "function",
      "constant": true
    },
    {
      "inputs": [],
      "name": "MERCHANT_ROLE",
      "outputs": [
        {
          "internalType": "bytes32",
          "name": "",
          "type": "bytes32"
        }
      ],
      "stateMutability": "view",
      "type": "function",
      "constant": true
    },
    {
      "inputs": [],
      "name": "PAUSER_ROLE",
      "outputs": [
        {
          "internalType": "bytes32",
          "name": "",
          "type": "bytes32"
        }
      ],
      "stateMutability": "view",
      "type": "function",
      "constant": true
    },
    {
      "inputs": [
        {
          "internalType": "bytes32",
          "name": "",
          "type": "bytes32"
        }
      ],
      "name": "burnNonce",
      "outputs": [
        {
          "internalType": "uint256",
          "name": "",
          "type": "uint256"
        }
      ],
      "stateMutability": "view",
      "type": "function",
      "constant": true
    },
    {
      "inputs": [
        {
          "internalType": "uint256",
          "name": "",
          "type": "uint256"
        }
      ],
      "name": "burns",
      "outputs": [
        {
          "internalType": "address",
          "name": "requester",
          "type": "address"
        },
        {
          "internalType": "uint256",
          "name": "amount",
          "type": "uint256"
        },
        {
          "internalType": "string",
          "name": "deposit",
          "type": "string"
        },
        {
          "internalType": "string",
          "name": "txId",
          "type": "string"
        },
        {
          "internalType": "uint256",
          "name": "nonce",
          "type": "uint256"
        },
        {
          "internalType": "uint256",
          "name": "timestamp",
          "type": "uint256"
        },
        {
          "internalType": "enum WFILFactory.RequestStatus",
          "name": "status",
          "type": "uint8"
        }
      ],
      "stateMutability": "view",
      "type": "function",
      "constant": true
    },
    {
      "inputs": [
        {
          "internalType": "address",
          "name": "",
          "type": "address"
        }
      ],
      "name": "custodian",
      "outputs": [
        {
          "internalType": "string",
          "name": "",
          "type": "string"
        }
      ],
      "stateMutability": "view",
      "type": "function",
      "constant": true
    },
    {
      "inputs": [
        {
          "internalType": "bytes32",
          "name": "role",
          "type": "bytes32"
        }
      ],
      "name": "getRoleAdmin",
      "outputs": [
        {
          "internalType": "bytes32",
          "name": "",
          "type": "bytes32"
        }
      ],
      "stateMutability": "view",
      "type": "function",
      "constant": true
    },
    {
      "inputs": [
        {
          "internalType": "bytes32",
          "name": "role",
          "type": "bytes32"
        },
        {
          "internalType": "uint256",
          "name": "index",
          "type": "uint256"
        }
      ],
      "name": "getRoleMember",
      "outputs": [
        {
          "internalType": "address",
          "name": "",
          "type": "address"
        }
      ],
      "stateMutability": "view",
      "type": "function",
      "constant": true
    },
    {
      "inputs": [
        {
          "internalType": "bytes32",
          "name": "role",
          "type": "bytes32"
        }
      ],
      "name": "getRoleMemberCount",
      "outputs": [
        {
          "internalType": "uint256",
          "name": "",
          "type": "uint256"
        }
      ],
      "stateMutability": "view",
      "type": "function",
      "constant": true
    },
    {
      "inputs": [
        {
          "internalType": "bytes32",
          "name": "role",
          "type": "bytes32"
        },
        {
          "internalType": "address",
          "name": "account",
          "type": "address"
        }
      ],
      "name": "grantRole",
      "outputs": [],
      "stateMutability": "nonpayable",
      "type": "function"
    },
    {
      "inputs": [
        {
          "internalType": "bytes32",
          "name": "role",
          "type": "bytes32"
        },
        {
          "internalType": "address",
          "name": "account",
          "type": "address"
        }
      ],
      "name": "hasRole",
      "outputs": [
        {
          "internalType": "bool",
          "name": "",
          "type": "bool"
        }
      ],
      "stateMutability": "view",
      "type": "function",
      "constant": true
    },
    {
      "inputs": [
        {
          "internalType": "address",
          "name": "",
          "type": "address"
        }
      ],
      "name": "merchant",
      "outputs": [
        {
          "internalType": "string",
          "name": "",
          "type": "string"
        }
      ],
      "stateMutability": "view",
      "type": "function",
      "constant": true
    },
    {
      "inputs": [
        {
          "internalType": "bytes32",
          "name": "",
          "type": "bytes32"
        }
      ],
      "name": "mintNonce",
      "outputs": [
        {
          "internalType": "uint256",
          "name": "",
          "type": "uint256"
        }
      ],
      "stateMutability": "view",
      "type": "function",
      "constant": true
    },
    {
      "inputs": [
        {
          "internalType": "uint256",
          "name": "",
          "type": "uint256"
        }
      ],
      "name": "mints",
      "outputs": [
        {
          "internalType": "address",
          "name": "requester",
          "type": "address"
        },
        {
          "internalType": "uint256",
          "name": "amount",
          "type": "uint256"
        },
        {
          "internalType": "string",
          "name": "deposit",
          "type": "string"
        },
        {
          "internalType": "string",
          "name": "txId",
          "type": "string"
        },
        {
          "internalType": "uint256",
          "name": "nonce",
          "type": "uint256"
        },
        {
          "internalType": "uint256",
          "name": "timestamp",
          "type": "uint256"
        },
        {
          "internalType": "enum WFILFactory.RequestStatus",
          "name": "status",
          "type": "uint8"
        }
      ],
      "stateMutability": "view",
      "type": "function",
      "constant": true
    },
    {
      "inputs": [],
      "name": "paused",
      "outputs": [
        {
          "internalType": "bool",
          "name": "",
          "type": "bool"
        }
      ],
      "stateMutability": "view",
      "type": "function",
      "constant": true
    },
    {
      "inputs": [
        {
          "internalType": "bytes32",
          "name": "role",
          "type": "bytes32"
        },
        {
          "internalType": "address",
          "name": "account",
          "type": "address"
        }
      ],
      "name": "renounceRole",
      "outputs": [],
      "stateMutability": "nonpayable",
      "type": "function"
    },
    {
      "inputs": [
        {
          "internalType": "bytes32",
          "name": "role",
          "type": "bytes32"
        },
        {
          "internalType": "address",
          "name": "account",
          "type": "address"
        }
      ],
      "name": "revokeRole",
      "outputs": [],
      "stateMutability": "nonpayable",
      "type": "function"
    },
    {
      "inputs": [],
      "name": "owner",
      "outputs": [
        {
          "internalType": "address",
          "name": "",
          "type": "address"
        }
      ],
      "stateMutability": "view",
      "type": "function",
      "constant": true
    },
    {
      "inputs": [
        {
          "internalType": "address",
          "name": "newOwner",
          "type": "address"
        }
      ],
      "name": "setOwner",
      "outputs": [],
      "stateMutability": "nonpayable",
      "type": "function"
    },
    {
      "inputs": [
        {
          "internalType": "address",
          "name": "_merchant",
          "type": "address"
        },
        {
          "internalType": "string",
          "name": "deposit",
          "type": "string"
        }
      ],
      "name": "setCustodianDeposit",
      "outputs": [
        {
          "internalType": "bool",
          "name": "",
          "type": "bool"
        }
      ],
      "stateMutability": "nonpayable",
      "type": "function"
    },
    {
      "inputs": [
        {
          "internalType": "string",
          "name": "deposit",
          "type": "string"
        }
      ],
      "name": "setMerchantDeposit",
      "outputs": [
        {
          "internalType": "bool",
          "name": "",
          "type": "bool"
        }
      ],
      "stateMutability": "nonpayable",
      "type": "function"
    },
    {
      "inputs": [
        {
          "internalType": "uint256",
          "name": "amount",
          "type": "uint256"
        },
        {
          "internalType": "string",
          "name": "txId",
          "type": "string"
        },
        {
          "internalType": "string",
          "name": "deposit",
          "type": "string"
        }
      ],
      "name": "addMintRequest",
      "outputs": [
        {
          "internalType": "bool",
          "name": "",
          "type": "bool"
        }
      ],
      "stateMutability": "nonpayable",
      "type": "function"
    },
    {
      "inputs": [
        {
          "internalType": "bytes32",
          "name": "requestHash",
          "type": "bytes32"
        }
      ],
      "name": "cancelMintRequest",
      "outputs": [
        {
          "internalType": "bool",
          "name": "",
          "type": "bool"
        }
      ],
      "stateMutability": "nonpayable",
      "type": "function"
    },
    {
      "inputs": [
        {
          "internalType": "bytes32",
          "name": "requestHash",
          "type": "bytes32"
        }
      ],
      "name": "confirmMintRequest",
      "outputs": [
        {
          "internalType": "bool",
          "name": "",
          "type": "bool"
        }
      ],
      "stateMutability": "nonpayable",
      "type": "function"
    },
    {
      "inputs": [
        {
          "internalType": "bytes32",
          "name": "requestHash",
          "type": "bytes32"
        }
      ],
      "name": "rejectMintRequest",
      "outputs": [
        {
          "internalType": "bool",
          "name": "",
          "type": "bool"
        }
      ],
      "stateMutability": "nonpayable",
      "type": "function"
    },
    {
      "inputs": [
        {
          "internalType": "uint256",
          "name": "amount",
          "type": "uint256"
        }
      ],
      "name": "burn",
      "outputs": [
        {
          "internalType": "bool",
          "name": "",
          "type": "bool"
        }
      ],
      "stateMutability": "nonpayable",
      "type": "function"
    },
    {
      "inputs": [
        {
          "internalType": "bytes32",
          "name": "requestHash",
          "type": "bytes32"
        },
        {
          "internalType": "string",
          "name": "txId",
          "type": "string"
        }
      ],
      "name": "confirmBurnRequest",
      "outputs": [
        {
          "internalType": "bool",
          "name": "",
          "type": "bool"
        }
      ],
      "stateMutability": "nonpayable",
      "type": "function"
    },
    {
      "inputs": [
        {
          "internalType": "uint256",
          "name": "nonce",
          "type": "uint256"
        }
      ],
      "name": "getMintRequest",
      "outputs": [
        {
          "internalType": "uint256",
          "name": "requestNonce",
          "type": "uint256"
        },
        {
          "internalType": "address",
          "name": "requester",
          "type": "address"
        },
        {
          "internalType": "uint256",
          "name": "amount",
          "type": "uint256"
        },
        {
          "internalType": "string",
          "name": "deposit",
          "type": "string"
        },
        {
          "internalType": "string",
          "name": "txId",
          "type": "string"
        },
        {
          "internalType": "uint256",
          "name": "timestamp",
          "type": "uint256"
        },
        {
          "internalType": "string",
          "name": "status",
          "type": "string"
        },
        {
          "internalType": "bytes32",
          "name": "requestHash",
          "type": "bytes32"
        }
      ],
      "stateMutability": "view",
      "type": "function",
      "constant": true
    },
    {
      "inputs": [],
      "name": "getMintRequestsCount",
      "outputs": [
        {
          "internalType": "uint256",
          "name": "count",
          "type": "uint256"
        }
      ],
      "stateMutability": "view",
      "type": "function",
      "constant": true
    },
    {
      "inputs": [
        {
          "internalType": "uint256",
          "name": "nonce",
          "type": "uint256"
        }
      ],
      "name": "getBurnRequest",
      "outputs": [
        {
          "internalType": "uint256",
          "name": "requestNonce",
          "type": "uint256"
        },
        {
          "internalType": "address",
          "name": "requester",
          "type": "address"
        },
        {
          "internalType": "uint256",
          "name": "amount",
          "type": "uint256"
        },
        {
          "internalType": "string",
          "name": "deposit",
          "type": "string"
        },
        {
          "internalType": "string",
          "name": "txId",
          "type": "string"
        },
        {
          "internalType": "uint256",
          "name": "timestamp",
          "type": "uint256"
        },
        {
          "internalType": "string",
          "name": "status",
          "type": "string"
        },
        {
          "internalType": "bytes32",
          "name": "requestHash",
          "type": "bytes32"
        }
      ],
      "stateMutability": "view",
      "type": "function",
      "constant": true
    },
    {
      "inputs": [],
      "name": "getBurnRequestsCount",
      "outputs": [
        {
          "internalType": "uint256",
          "name": "count",
          "type": "uint256"
        }
      ],
      "stateMutability": "view",
      "type": "function",
      "constant": true
    },
    {
      "inputs": [
        {
          "internalType": "contract IERC20",
          "name": "token",
          "type": "address"
        }
      ],
      "name": "reclaimToken",
      "outputs": [],
      "stateMutability": "nonpayable",
      "type": "function"
    },
    {
      "inputs": [
        {
          "internalType": "address",
          "name": "account",
          "type": "address"
        }
      ],
      "name": "addCustodian",
      "outputs": [
        {
          "internalType": "bool",
          "name": "",
          "type": "bool"
        }
      ],
      "stateMutability": "nonpayable",
      "type": "function"
    },
    {
      "inputs": [
        {
          "internalType": "address",
          "name": "account",
          "type": "address"
        }
      ],
      "name": "removeCustodian",
      "outputs": [
        {
          "internalType": "bool",
          "name": "",
          "type": "bool"
        }
      ],
      "stateMutability": "nonpayable",
      "type": "function"
    },
    {
      "inputs": [
        {
          "internalType": "address",
          "name": "account",
          "type": "address"
        }
      ],
      "name": "addMerchant",
      "outputs": [
        {
          "internalType": "bool",
          "name": "",
          "type": "bool"
        }
      ],
      "stateMutability": "nonpayable",
      "type": "function"
    },
    {
      "inputs": [
        {
          "internalType": "address",
          "name": "account",
          "type": "address"
        }
      ],
      "name": "removeMerchant",
      "outputs": [
        {
          "internalType": "bool",
          "name": "",
          "type": "bool"
        }
      ],
      "stateMutability": "nonpayable",
      "type": "function"
    },
    {
      "inputs": [],
      "name": "pause",
      "outputs": [],
      "stateMutability": "nonpayable",
      "type": "function"
    },
    {
      "inputs": [],
      "name": "unpause",
      "outputs": [],
      "stateMutability": "nonpayable",
      "type": "function"
    }
  ],
  "bytecode": "0x60a06040523480156200001157600080fd5b506040516200469338038062004693833981810160405260408110156200003757600080fd5b5080516020909101516001805460ff19169055600160a060020a038216620000ab576040517f08c379a000000000000000000000000000000000000000000000000000000000815260040180806020018281038252602b81526020018062004668602b913960400191505060405180910390fd5b600160a060020a0381166200010c576040517f08c379a000000000000000000000000000000000000000000000000000000000815260040180806020018281038252602b81526020018062004668602b913960400191505060405180910390fd5b6200012260008264010000000062000191810204565b620001577f65d7a28e3265b37a6474929f336521b332c1681b933f6cb9f3376673440d862a8264010000000062000191810204565b6001805461010060a860020a031916610100600160a060020a0393841602179055166c0100000000000000000000000002608052620002cc565b620001a68282640100000000620001aa810204565b5050565b6000828152602081905260409020620001d2908264010000000062002f0f6200022f82021704565b15620001a657620001eb64010000000062000258810204565b600160a060020a031681600160a060020a0316837f2f8788117e7eff1d82e926ec794901d17c78024a50270940304540a733656f0d60405160405180910390a45050565b60006200024f83600160a060020a0384166401000000006200025c810204565b90505b92915050565b3390565b6000620002738383640100000000620002b4810204565b620002ab5750815460018181018455600084815260208082209093018490558454848252828601909352604090209190915562000252565b50600062000252565b60009081526001919091016020526040902054151590565b6080516c01000000000000000000000000900461436c620002fc6000398061113a528061188d525061436c6000f3fe608060405234801561001057600080fd5b50600436106102415760003560e060020a90048063861f92a81161013f578063bf76c0ef116100bc578063df5a2d9011610080578063df5a2d9014610ace578063e21c40c014610b4e578063e63ab1e914610b6b578063fc2e30a514610b73578063fe43aa6914610b7b57610241565b8063bf76c0ef14610a3a578063c06e2d2414610a60578063c79445d014610a7d578063ca15c87314610a85578063d547741f14610aa257610241565b80639355f0a4116101035780639355f0a414610809578063a217fddf14610880578063a86eb29214610888578063b3d35839146108a5578063b69b22d8146108ad57610241565b8063861f92a8146106b05780638da5cb5b146106cd5780638e24a764146106f15780639010d07c146107ba57806391d14854146107dd57610241565b80632f2ff15d116101cd5780635c975abb116101915780635c975abb146104d85780636350b2c2146104e057806367e29a03146106125780638456cb591461068257806385d95b811461068a57610241565b80632f2ff15d1461045357806336568abe1461047f5780633f4ba83a146104ab57806342966c68146104b35780634e8a7e80146104d057610241565b8063215c941711610214578063215c941714610329578063229c1664146103c4578063248a9ca3146103f35780632bf90baa146104105780632dc148e01461042d57610241565b80630f12a66a1461027b578063133adab6146102b557806313af4035146102db57806317ffc32014610303575b60405160e560020a62461bcd02815260040180806020018281038252602c815260200180613f71602c913960400191505060405180910390fd5b6102a16004803603602081101561029157600080fd5b5035600160a060020a0316610b98565b604080519115158252519081900360200190f35b6102a1600480360360208110156102cb57600080fd5b5035600160a060020a0316610bff565b610301600480360360208110156102f157600080fd5b5035600160a060020a0316610c61565b005b6103016004803603602081101561031957600080fd5b5035600160a060020a0316610d7c565b61034f6004803603602081101561033f57600080fd5b5035600160a060020a0316610ea8565b6040805160208082528351818301528351919283929083019185019080838360005b83811015610389578181015183820152602001610371565b50505050905090810190601f1680156103b65780820380516001836020036101000a031916815260200191505b509250505060405180910390f35b6103e1600480360360208110156103da57600080fd5b5035610f43565b60408051918252519081900360200190f35b6103e16004803603602081101561040957600080fd5b5035610f55565b6102a16004803603602081101561042657600080fd5b5035610f6a565b61034f6004803603602081101561044357600080fd5b5035600160a060020a0316611244565b6103016004803603604081101561046957600080fd5b5080359060200135600160a060020a03166112ac565b6103016004803603604081101561049557600080fd5b5080359060200135600160a060020a031661131b565b61030161137f565b6102a1600480360360208110156104c957600080fd5b50356113f1565b6103e1611962565b6102a1611973565b6104fd600480360360208110156104f657600080fd5b503561197c565b6040518088600160a060020a03168152602001878152602001806020018060200186815260200185815260200184600381111561053657fe5b8152602001838103835288818151815260200191508051906020019080838360005b83811015610570578181015183820152602001610558565b50505050905090810190601f16801561059d5780820380516001836020036101000a031916815260200191505b50838103825287518152875160209182019189019080838360005b838110156105d05781810151838201526020016105b8565b50505050905090810190601f1680156105fd5780820380516001836020036101000a031916815260200191505b50995050505050505050505060405180910390f35b6102a16004803603602081101561062857600080fd5b81019060208101813564010000000081111561064357600080fd5b82018360208201111561065557600080fd5b8035906020019184600183028401116401000000008311171561067757600080fd5b509092509050611ad9565b610301611c3e565b6102a1600480360360208110156106a057600080fd5b5035600160a060020a0316611cae565b6102a1600480360360208110156106c657600080fd5b5035611d58565b6106d5611f30565b60408051600160a060020a039092168252519081900360200190f35b6102a16004803603606081101561070757600080fd5b8135919081019060408101602082013564010000000081111561072957600080fd5b82018360208201111561073b57600080fd5b8035906020019184600183028401116401000000008311171561075d57600080fd5b91939092909160208101903564010000000081111561077b57600080fd5b82018360208201111561078d57600080fd5b803590602001918460018302840111640100000000831117156107af57600080fd5b509092509050611f44565b6106d5600480360360408110156107d057600080fd5b5080359060200135612328565b6102a1600480360360408110156107f357600080fd5b5080359060200135600160a060020a0316612347565b6102a16004803603604081101561081f57600080fd5b8135919081019060408101602082013564010000000081111561084157600080fd5b82018360208201111561085357600080fd5b8035906020019184600183028401116401000000008311171561087557600080fd5b50909250905061235f565b6103e16125b2565b6104fd6004803603602081101561089e57600080fd5b50356125b7565b6103e1612638565b6108ca600480360360208110156108c357600080fd5b503561264a565b6040518089815260200188600160a060020a03168152602001878152602001806020018060200186815260200180602001858152602001848103845289818151815260200191508051906020019080838360005b8381101561093657818101518382015260200161091e565b50505050905090810190601f1680156109635780820380516001836020036101000a031916815260200191505b5084810383528851815288516020918201918a019080838360005b8381101561099657818101518382015260200161097e565b50505050905090810190601f1680156109c35780820380516001836020036101000a031916815260200191505b50848103825286518152865160209182019188019080838360005b838110156109f65781810151838201526020016109de565b50505050905090810190601f168015610a235780820380516001836020036101000a031916815260200191505b509b50505050505050505050505060405180910390f35b6102a160048036036020811015610a5057600080fd5b5035600160a060020a031661284d565b6102a160048036036020811015610a7657600080fd5b50356128f7565b6103e1612a10565b6103e160048036036020811015610a9b57600080fd5b5035612a22565b61030160048036036040811015610ab857600080fd5b5080359060200135600160a060020a0316612a39565b6102a160048036036040811015610ae457600080fd5b600160a060020a038235169190810190604081016020820135640100000000811115610b0f57600080fd5b820183602082011115610b2157600080fd5b80359060200191846001830284011164010000000083111715610b4357600080fd5b509092509050612a95565b6108ca60048036036020811015610b6457600080fd5b5035612cab565b6103e1612ecd565b6103e1612ef1565b6103e160048036036020811015610b9157600080fd5b5035612efd565b6000610ba48133612347565b610be25760405160e560020a62461bcd02815260040180806020018281038252602c8152602001806141c8602c913960400191505060405180910390fd5b610bfa6000805160206140b283398151915283612a39565b919050565b6000610c0b8133612347565b610c495760405160e560020a62461bcd02815260040180806020018281038252602c8152602001806141c8602c913960400191505060405180910390fd5b610bfa60008051602061421f83398151915283612a39565b610c6c600033612347565b610caa5760405160e560020a62461bcd02815260040180806020018281038252602c8152602001806141c8602c913960400191505060405180910390fd5b600160a060020a038116610cf25760405160e560020a62461bcd02815260040180806020018281038252602a815260200180613f9d602a913960400191505060405180910390fd5b610cfd6000826112ac565b610d0860003361131b565b600154604051600160a060020a0380841692610100900416907fb532073b38c83145e3e5135377a08bf9aab55bc0fd7c1179cd4fb995d2a5159c90600090a360018054600160a060020a039092166101000274ffffffffffffffffffffffffffffffffffffffff0019909216919091179055565b610d87600033612347565b610dc55760405160e560020a62461bcd02815260040180806020018281038252602c8152602001806141c8602c913960400191505060405180910390fd5b600081600160a060020a03166370a08231306040518263ffffffff1660e060020a0281526004018082600160a060020a0316815260200191505060206040518083038186803b158015610e1757600080fd5b505afa158015610e2b573d6000803e3d6000fd5b505050506040513d6020811015610e4157600080fd5b5051600154909150610e6590600160a060020a038481169161010090041683612f24565b604080518281529051600160a060020a038416917fe42df0d9493dfd0d7f69902c895b94c190a53e8c27876a86f45e7c997d9d8f7c919081900360200190a25050565b60056020908152600091825260409182902080548351601f600260001961010060018616150201909316929092049182018490048402810184019094528084529091830182828015610f3b5780601f10610f1057610100808354040283529160200191610f3b565b820191906000526020600020905b815481529060010190602001808311610f1e57829003601f168201915b505050505081565b60066020526000908152604090205481565b60009081526020819052604090206002015490565b6000610f846000805160206140b283398151915233612347565b610fc25760405160e560020a62461bcd0281526004018080602001828103825260268152602001806141526026913960400191505060405180910390fd5b6000610fcc613dce565b610fd584612fa9565b6000828152600860205260409020600601805492945090925060029160ff191660018302179055508060000151600160a060020a031681608001517f051f4ba27061b0e6dc829669a7baa8bba9cf7f6cd2f95e1f0bdd9c22126d8b218360200151846040015185606001518660a001518a604051808681526020018060200180602001858152602001848152602001838103835287818151815260200191508051906020019080838360005b83811015611099578181015183820152602001611081565b50505050905090810190601f1680156110c65780820380516001836020036101000a031916815260200191505b50838103825286518152865160209182019188019080838360005b838110156110f95781810151838201526020016110e1565b50505050905090810190601f1680156111265780820380516001836020036101000a031916815260200191505b5097505050505050505060405180910390a37f0000000000000000000000000000000000000000000000000000000000000000600160a060020a031663bf376c7a826000015183602001516040518363ffffffff1660e060020a0281526004018083600160a060020a0316815260200182815260200192505050602060405180830381600087803b1580156111ba57600080fd5b505af11580156111ce573d6000803e3d6000fd5b505050506040513d60208110156111e457600080fd5b505161123a576040805160e560020a62461bcd02815260206004820152601860248201527f5746494c466163746f72793a206d696e74206661696c65640000000000000000604482015290519081900360640190fd5b5060019392505050565b60046020908152600091825260409182902080548351601f600260001961010060018616150201909316929092049182018490048402810184019094528084529091830182828015610f3b5780601f10610f1057610100808354040283529160200191610f3b565b6000828152602081905260409020600201546112cf906112ca6131ba565b612347565b61130d5760405160e560020a62461bcd02815260040180806020018281038252602f815260200180613f42602f913960400191505060405180910390fd5b61131782826131be565b5050565b6113236131ba565b600160a060020a031681600160a060020a0316146113755760405160e560020a62461bcd02815260040180806020018281038252602f815260200180614308602f913960400191505060405180910390fd5b6113178282613227565b6113a97f65d7a28e3265b37a6474929f336521b332c1681b933f6cb9f3376673440d862a33612347565b6113e75760405160e560020a62461bcd02815260040180806020018281038252602d815260200180614178602d913960400191505060405180910390fd5b6113ef613290565b565b600061140b60008051602061421f83398151915233612347565b6114495760405160e560020a62461bcd02815260040180806020018281038252602581526020018061408d6025913960400191505060405180910390fd5b3360009081526005602090815260409182902080548351601f60026000196101006001861615020190931692909204918201849004840281018401909452808452606093928301828280156114df5780601f106114b4576101008083540402835291602001916114df565b820191906000526020600020905b8154815290600101906020018083116114c257829003601f168201915b505050505090506114ef8161333a565b1561152e5760405160e560020a62461bcd02815260040180806020018281038252603a8152602001806142ce603a913960400191505060405180910390fd5b600061153a6003613355565b90506000611546613359565b604080516020808201835260008083528681526009825292909220805473ffffffffffffffffffffffffffffffffffffffff191633178155600181018990558651939450909261159e92600290920191870190613e1e565b50600083815260096020908152604090912082516115c492600390920191840190613e1e565b506000838152600960209081526040808320600481018790556005810186905560068101805460ff19169055815160e0810183528154600160a060020a03168152600180830154828601526002808401805486516101009482161594909402600019011691909104601f810187900487028301870186528083526117749693958601938301828280156116985780601f1061166d57610100808354040283529160200191611698565b820191906000526020600020905b81548152906001019060200180831161167b57829003601f168201915b505050918352505060038201805460408051602060026001851615610100026000190190941693909304601f810184900484028201840190925281815293820193929183018282801561172c5780601f106117015761010080835404028352916020019161172c565b820191906000526020600020905b81548152906001019060200180831161170f57829003601f168201915b50505091835250506004820154602082015260058201546040820152600682015460609091019060ff16600381111561176157fe5b600381111561176c57fe5b90525061335d565b600081815260076020526040902085905590506117916003613497565b33600160a060020a0316847f865e64c3fa22a0daee479fc02875d3e97d581930b9679232344d4d5dcce6a7b2898887866040518085815260200180602001848152602001838152602001828103825285818151815260200191508051906020019080838360005b838110156118105781810151838201526020016117f8565b50505050905090810190601f16801561183d5780820380516001836020036101000a031916815260200191505b509550505050505060405180910390a3604080517fff271af1000000000000000000000000000000000000000000000000000000008152336004820152602481018990529051600160a060020a037f0000000000000000000000000000000000000000000000000000000000000000169163ff271af19160448083019260209291908290030181600087803b1580156118d557600080fd5b505af11580156118e9573d6000803e3d6000fd5b505050506040513d60208110156118ff57600080fd5b5051611955576040805160e560020a62461bcd02815260206004820152601860248201527f5746494c466163746f72793a206275726e206661696c65640000000000000000604482015290519081900360640190fd5b5060019695505050505050565b600061196e6003613355565b905090565b60015460ff1690565b60086020908152600091825260409182902080546001808301546002808501805488516101009582161595909502600019011691909104601f8101879004870284018701909752868352600160a060020a03909316959094919291830182828015611a285780601f106119fd57610100808354040283529160200191611a28565b820191906000526020600020905b815481529060010190602001808311611a0b57829003601f168201915b5050505060038301805460408051602060026001851615610100026000190190941693909304601f8101849004840282018401909252818152949594935090830182828015611ab85780601f10611a8d57610100808354040283529160200191611ab8565b820191906000526020600020905b815481529060010190602001808311611a9b57829003601f168201915b50505050600483015460058401546006909401549293909290915060ff1687565b6000611af360008051602061421f83398151915233612347565b611b315760405160e560020a62461bcd02815260040180806020018281038252602581526020018061408d6025913960400191505060405180910390fd5b611b7083838080601f01602080910402602001604051908101604052809392919081815260200183838082843760009201919091525061333a92505050565b15611baf5760405160e560020a62461bcd02815260040180806020018281038252602a8152602001806140d2602a913960400191505060405180910390fd5b336000908152600560205260409020611bc9908484613e9c565b5033600160a060020a03167f21700e3b38322102310a29bab9965595d14ebb6aaee62318ca7fb0b58e1fb37a848460405180806020018281038252848482818152602001925080828437600083820152604051601f909101601f19169092018290039550909350505050a25060015b92915050565b611c687f65d7a28e3265b37a6474929f336521b332c1681b933f6cb9f3376673440d862a33612347565b611ca65760405160e560020a62461bcd02815260040180806020018281038252602b8152602001806141f4602b913960400191505060405180910390fd5b6113ef6134a0565b6000611cba8133612347565b611cf85760405160e560020a62461bcd02815260040180806020018281038252602c8152602001806141c8602c913960400191505060405180910390fd5b600160a060020a038216611d405760405160e560020a62461bcd028152600401808060200182810382526028815260200180613fc76028913960400191505060405180910390fd5b610bfa6000805160206140b2833981519152836112ac565b6000611d726000805160206140b283398151915233612347565b611db05760405160e560020a62461bcd0281526004018080602001828103825260268152602001806141526026913960400191505060405180910390fd5b6000611dba613dce565b611dc384612fa9565b6000828152600860205260409020600601805492945090925060039160ff191660018302179055508060000151600160a060020a031681608001517fdadc06f5b98131083e96b856c044184efd23ae2e797a876fd80aa5dae4f724558360200151846040015185606001518660a001518a604051808681526020018060200180602001858152602001848152602001838103835287818151815260200191508051906020019080838360005b83811015611e87578181015183820152602001611e6f565b50505050905090810190601f168015611eb45780820380516001836020036101000a031916815260200191505b50838103825286518152865160209182019188019080838360005b83811015611ee7578181015183820152602001611ecf565b50505050905090810190601f168015611f145780820380516001836020036101000a031916815260200191505b5097505050505050505060405180910390a35060019392505050565b6001546101009004600160a060020a031690565b6000611f5e60008051602061421f83398151915233612347565b611f9c5760405160e560020a62461bcd02815260040180806020018281038252602581526020018061408d6025913960400191505060405180910390fd5b611fdb83838080601f01602080910402602001604051908101604052809392919081815260200183838082843760009201919091525061333a92505050565b1561201a5760405160e560020a62461bcd02815260040180806020018281038252602d815260200180614035602d913960400191505060405180910390fd5b6120ee83838080601f0160208091040260200160405190810160405280939291908181526020018383808284376000920182905250338152600460209081526040918290208054835160026000196101006001851615020190921691909104601f8101849004840282018401909452838152955093509091508301828280156120e45780601f106120b9576101008083540402835291602001916120e4565b820191906000526020600020905b8154815290600101906020018083116120c757829003601f168201915b5050505050613530565b61212c5760405160e560020a62461bcd02815260040180806020018281038252602b815260200180614062602b913960400191505060405180910390fd5b60006121386002613355565b90506000612144613359565b6000838152600860205260409020805473ffffffffffffffffffffffffffffffffffffffff191633178155600181018a9055909150612187906002018686613e9c565b5060008281526008602052604090206121a4906003018888613e9c565b506000828152600860209081526040808320600481018690556005810185905560068101805460ff19169055815160e0810183528154600160a060020a03168152600180830154828601526002808401805486516101009482161594909402600019011691909104601f8101879004870283018701865280835261224d9693958601938301828280156116985780601f1061166d57610100808354040283529160200191611698565b6000818152600660205260409020849055905061226a6002613497565b33600160a060020a0316837f09e00024b3e14e42d4e78c05bf370a34c2e4ce4027dad38abafdb1bf49da432f8b89898d8d89896040518088815260200180602001806020018581526020018481526020018381038352898982818152602001925080828437600083820152601f01601f191690910184810383528781526020019050878780828437600083820152604051601f909101601f19169092018290039b50909950505050505050505050a350600198975050505050505050565b60008281526020819052604081206123409083613617565b9392505050565b60008281526020819052604081206123409083613623565b60006123796000805160206140b283398151915233612347565b6123b75760405160e560020a62461bcd0281526004018080602001828103825260268152602001806141526026913960400191505060405180910390fd5b60006123c1613dce565b6123ca86613638565b600082815260096020526040902091935091506123eb906003018686613e9c565b506000828152600960209081526040808320600681018054600260ff199091168117909155825160e0810184528254600160a060020a0316815260018084015482870152828401805486516101009382161593909302600019011693909304601f8101879004870282018701865280825289976007979096612496969495908601939290918301828280156116985780601f1061166d57610100808354040283529160200191611698565b8152602001908152602001600020819055508060000151600160a060020a031681608001517f1949e77206780c38f7c6487c926f8a51280fcdbf63397a01a3428dbfccd2b09f8360200151846040015189898760a001518d604051808781526020018060200180602001858152602001848152602001838103835288818151815260200191508051906020019080838360005b83811015612541578181015183820152602001612529565b50505050905090810190601f16801561256e5780820380516001836020036101000a031916815260200191505b508381038252868152602001878780828437600083820152604051601f909101601f19169092018290039a509098505050505050505050a350600195945050505050565b600081565b60096020908152600091825260409182902080546001808301546002808501805488516101009582161595909502600019011691909104601f8101879004870284018701909752868352600160a060020a03909316959094919291830182828015611a285780601f106119fd57610100808354040283529160200191611a28565b60008051602061421f83398151915281565b6000806000606080600060606000612660613dce565b60008a815260086020908152604091829020825160e0810184528154600160a060020a03168152600180830154828501526002808401805487516101009482161594909402600019011691909104601f8101869004860283018601875280835292959394938601939192909183018282801561271d5780601f106126f25761010080835404028352916020019161271d565b820191906000526020600020905b81548152906001019060200180831161270057829003601f168201915b505050918352505060038201805460408051602060026001851615610100026000190190941693909304601f81018490048402820184019092528181529382019392918301828280156127b15780601f10612786576101008083540402835291602001916127b1565b820191906000526020600020905b81548152906001019060200180831161279457829003601f168201915b50505091835250506004820154602082015260058201546040820152600682015460609091019060ff1660038111156127e657fe5b60038111156127f157fe5b81525050905060606128068260c00151613736565b905081608001519950816000015198508160200151975081604001519650816060015195508160a00151945080935061283e8261335d565b92505050919395975091939597565b60006128598133612347565b6128975760405160e560020a62461bcd02815260040180806020018281038252602c8152602001806141c8602c913960400191505060405180910390fd5b600160a060020a0382166128df5760405160e560020a62461bcd028152600401808060200182810382526028815260200180613fc76028913960400191505060405180910390fd5b610bfa60008051602061421f833981519152836112ac565b600061291160008051602061421f83398151915233612347565b61294f5760405160e560020a62461bcd02815260040180806020018281038252602581526020018061408d6025913960400191505060405180910390fd5b6000612959613dce565b61296284612fa9565b80519193509150600160a060020a031633146129b25760405160e560020a62461bcd028152600401808060200182810382526046815260200180613fef6046913960600191505060405180910390fd5b600082815260086020908152604091829020600601805460ff1916600117905581518681529151339285927fb419f275eebfa354bbab2709955ee0c0e25ca95fae50a8e3672c5e3d9c931f5892918290030190a35060019392505050565b6000805160206140b283398151915281565b6000818152602081905260408120611c38906138aa565b600082815260208190526040902060020154612a57906112ca6131ba565b6113755760405160e560020a62461bcd0281526004018080602001828103825260308152602001806141226030913960400191505060405180910390fd5b6000612aaf6000805160206140b283398151915233612347565b612aed5760405160e560020a62461bcd0281526004018080602001828103825260268152602001806141526026913960400191505060405180910390fd5b600160a060020a038416612b355760405160e560020a62461bcd02815260040180806020018281038252602581526020018061423f6025913960400191505060405180910390fd5b612b4d60008051602061421f83398151915285612347565b612b8b5760405160e560020a62461bcd02815260040180806020018281038252602581526020018061408d6025913960400191505060405180910390fd5b612bca83838080601f01602080910402602001604051908101604052809392919081815260200183838082843760009201919091525061333a92505050565b15612c095760405160e560020a62461bcd02815260040180806020018281038252602a8152602001806140d2602a913960400191505060405180910390fd5b600160a060020a0384166000908152600460205260409020612c2c908484613e9c565b5033600160a060020a031684600160a060020a03167f46c08ea79b5bd8e1059260cc8e75876109e4c2a74ff52b4d645d89b365b7e8da858560405180806020018281038252848482818152602001925080828437600083820152604051601f909101601f19169092018290039550909350505050a35060019392505050565b60008181526009602052604081206006810154829182916060918291849183918391908390612cdc9060ff16613736565b9050816004015499508160000160009054906101000a9004600160a060020a0316985081600101549750816002018054600181600116156101000203166002900480601f016020809104026020016040519081016040528092919081815260200182805460018160011615610100020316600290048015612d9e5780601f10612d7357610100808354040283529160200191612d9e565b820191906000526020600020905b815481529060010190602001808311612d8157829003601f168201915b5050505060038401805460408051602060026001851615610100026000190190941693909304601f8101849004840282018401909252818152949b50919250830182828015612e2e5780601f10612e0357610100808354040283529160200191612e2e565b820191906000526020600020905b815481529060010190602001808311612e1157829003601f168201915b5050505060058401546040805160e0810182528654600160a060020a031681526001808801546020808401919091526002808a01805486516101009582161595909502600019011691909104601f81018390048302840183018652808452979d50949b50969950899661283e969295508894938601939192908301828280156116985780601f1061166d57610100808354040283529160200191611698565b7f65d7a28e3265b37a6474929f336521b332c1681b933f6cb9f3376673440d862a81565b600061196e6002613355565b60076020526000908152604090205481565b600061234083600160a060020a0384166138b5565b60408051600160a060020a038416602482015260448082018490528251808303909101815260649091019091526020810180517bffffffffffffffffffffffffffffffffffffffffffffffffffffffff167fa9059cbb00000000000000000000000000000000000000000000000000000000179052612fa49084906138ff565b505050565b6000612fb3613dce565b82613008576040805160e560020a62461bcd02815260206004820152601e60248201527f5746494c466163746f72793a2072657175657374206861736820697320300000604482015290519081900360640190fd5b6000838152600660209081526040808320548084526008835292819020815160e0810183528154600160a060020a03168152600180830154828601526002808401805486516101009482161594909402600019011691909104601f8101879004870283018701865280835296985091959294938601939092908301828280156130d25780601f106130a7576101008083540402835291602001916130d2565b820191906000526020600020905b8154815290600101906020018083116130b557829003601f168201915b505050918352505060038201805460408051602060026001851615610100026000190190941693909304601f81018490048402820184019092528181529382019392918301828280156131665780601f1061313b57610100808354040283529160200191613166565b820191906000526020600020905b81548152906001019060200180831161314957829003601f168201915b50505091835250506004820154602082015260058201546040820152600682015460609091019060ff16600381111561319b57fe5b60038111156131a657fe5b90525090506131b581846139b3565b915091565b3390565b60008281526020819052604090206131d69082612f0f565b15611317576131e36131ba565b600160a060020a031681600160a060020a0316837f2f8788117e7eff1d82e926ec794901d17c78024a50270940304540a733656f0d60405160405180910390a45050565b600082815260208190526040902061323f9082613a4d565b156113175761324c6131ba565b600160a060020a031681600160a060020a0316837ff6391f5c32d9c69d2a47ea670b442974b53935d1edc7fd64eb21e047a839171b60405160405180910390a45050565b60015460ff166132ea576040805160e560020a62461bcd02815260206004820152601460248201527f5061757361626c653a206e6f7420706175736564000000000000000000000000604482015290519081900360640190fd5b6001805460ff191690557f5db9ee0a495bf2e6ff9c91a7834c1ba4fdd244a5e8aa4e537bd38aeae4b073aa61331d6131ba565b60408051600160a060020a039092168252519081900360200190a1565b6000611c388260405180602001604052806000815250613530565b5490565b4290565b6000816000015182602001518360400151846060015185608001518660a001516040516020018087600160a060020a031681526020018681526020018060200180602001858152602001848152602001838103835287818151815260200191508051906020019080838360005b838110156133e25781810151838201526020016133ca565b50505050905090810190601f16801561340f5780820380516001836020036101000a031916815260200191505b50838103825286518152865160209182019188019080838360005b8381101561344257818101518382015260200161342a565b50505050905090810190601f16801561346f5780820380516001836020036101000a031916815260200191505b5098505050505050505050604051602081830303815290604052805190602001209050919050565b80546001019055565b60015460ff16156134fb576040805160e560020a62461bcd02815260206004820152601060248201527f5061757361626c653a2070617573656400000000000000000000000000000000604482015290519081900360640190fd5b6001805460ff1916811790557f62e78cea01bee320cd4e420270b5ea74000d11b0c9f74754ebdbfc544b05a25861331d6131ba565b6000816040516020018082805190602001908083835b602083106135655780518252601f199092019160209182019101613546565b6001836020036101000a03801982511681845116808217855250505050505090500191505060405160208183030381529060405280519060200120836040516020018082805190602001908083835b602083106135d35780518252601f1990920191602091820191016135b4565b6001836020036101000a0380198251168184511680821785525050505050509050019150506040516020818303038152906040528051906020012014905092915050565b60006123408383613a62565b600061234083600160a060020a038416613ac9565b6000613642613dce565b82613697576040805160e560020a62461bcd02815260206004820152601e60248201527f5746494c466163746f72793a2072657175657374206861736820697320300000604482015290519081900360640190fd5b6000838152600760209081526040808320548084526009835292819020815160e0810183528154600160a060020a03168152600180830154828601526002808401805486516101009482161594909402600019011691909104601f8101879004870283018701865280835296985091959294938601939092908301828280156130d25780601f106130a7576101008083540402835291602001916130d2565b6060600082600381111561374657fe5b1415613786575060408051808201909152600781527f70656e64696e67000000000000000000000000000000000000000000000000006020820152610bfa565b600182600381111561379457fe5b14156137d4575060408051808201909152600881527f63616e63656c65640000000000000000000000000000000000000000000000006020820152610bfa565b60028260038111156137e257fe5b1415613822575060408051808201909152600881527f617070726f7665640000000000000000000000000000000000000000000000006020820152610bfa565b600382600381111561383057fe5b1415613870575060408051808201909152600881527f72656a65637465640000000000000000000000000000000000000000000000006020820152610bfa565b5060408051808201909152600781527f756e6b6e6f776e000000000000000000000000000000000000000000000000006020820152610bfa565b6000611c3882613355565b60006138c18383613ac9565b6138f757508154600181810184556000848152602080822090930184905584548482528286019093526040902091909155611c38565b506000611c38565b6060613954826040518060400160405280602081526020017f5361666545524332303a206c6f772d6c6576656c2063616c6c206661696c656481525085600160a060020a0316613ae19092919063ffffffff16565b805190915015612fa45780806020019051602081101561397357600080fd5b5051612fa45760405160e560020a62461bcd02815260040180806020018281038252602a815260200180614264602a913960400191505060405180910390fd5b60008260c0015160038111156139c557fe5b14613a045760405160e560020a62461bcd0281526004018080602001828103825260238152602001806141a56023913960400191505060405180910390fd5b613a0d8261335d565b81146113175760405160e560020a62461bcd02815260040180806020018281038252604081526020018061428e6040913960400191505060405180910390fd5b600061234083600160a060020a038416613af8565b81546000908210613aa75760405160e560020a62461bcd028152600401808060200182810382526022815260200180613f206022913960400191505060405180910390fd5b826000018281548110613ab657fe5b9060005260206000200154905092915050565b60009081526001919091016020526040902054151590565b6060613af08484600085613bbe565b949350505050565b60008181526001830160205260408120548015613bb45783546000198083019190810190600090879083908110613b2b57fe5b9060005260206000200154905080876000018481548110613b4857fe5b600091825260208083209091019290925582815260018981019092526040902090840190558654879080613b7857fe5b60019003818190600052602060002001600090559055866001016000878152602001908152602001600020600090556001945050505050611c38565b6000915050611c38565b60603031831115613c035760405160e560020a62461bcd0281526004018080602001828103825260268152602001806140fc6026913960400191505060405180910390fd5b613c0c85613d21565b613c60576040805160e560020a62461bcd02815260206004820152601d60248201527f416464726573733a2063616c6c20746f206e6f6e2d636f6e7472616374000000604482015290519081900360640190fd5b6000606086600160a060020a031685876040518082805190602001908083835b60208310613c9f5780518252601f199092019160209182019101613c80565b6001836020036101000a03801982511681845116808217855250505050505090500191505060006040518083038185875af1925050503d8060008114613d01576040519150601f19603f3d011682016040523d82523d6000602084013e613d06565b606091505b5091509150613d16828286613d27565b979650505050505050565b3b151590565b60608315613d36575081612340565b825115613d465782518084602001fd5b8160405160e560020a62461bcd0281526004018080602001828103825283818151815260200191508051906020019080838360005b83811015613d93578181015183820152602001613d7b565b50505050905090810190601f168015613dc05780820380516001836020036101000a031916815260200191505b509250505060405180910390fd5b6040518060e001604052806000600160a060020a03168152602001600081526020016060815260200160608152602001600081526020016000815260200160006003811115613e1957fe5b905290565b828054600181600116156101000203166002900490600052602060002090601f016020900481019282601f10613e5f57805160ff1916838001178555613e8c565b82800160010185558215613e8c579182015b82811115613e8c578251825591602001919060010190613e71565b50613e98929150613f0a565b5090565b828054600181600116156101000203166002900490600052602060002090601f016020900481019282601f10613edd5782800160ff19823516178555613e8c565b82800160010185558215613e8c579182015b82811115613e8c578235825591602001919060010190613eef565b5b80821115613e985760008155600101613f0b56fe456e756d657261626c655365743a20696e646578206f7574206f6620626f756e6473416363657373436f6e74726f6c3a2073656e646572206d75737420626520616e2061646d696e20746f206772616e745746494c466163746f72793a2066756e6374696f6e206e6f74206d61746368696e6720616e79206f746865725746494c466163746f72793a206e6577206f776e657220697320746865207a65726f20616464726573735746494c466163746f72793a206163636f756e7420697320746865207a65726f20616464726573735746494c466163746f72793a2063616e63656c2063616c6c657220697320646966666572656e74207468616e2070656e64696e67207265717565737420696e69746961746f725746494c466163746f72793a20696e76616c69642066696c65636f696e206465706f73697420616464726573735746494c466163746f72793a2077726f6e672066696c65636f696e206465706f73697420616464726573735746494c466163746f72793a2063616c6c6572206973206e6f742061206d65726368616e74e28434228950b641dbbc0178de89daa359a87c6ee0d8399aeace52a98fe902b95746494c466163746f72793a20696e76616c6964206173736574206465706f7369742061646472657373416464726573733a20696e73756666696369656e742062616c616e636520666f722063616c6c416363657373436f6e74726f6c3a2073656e646572206d75737420626520616e2061646d696e20746f207265766f6b655746494c466163746f72793a2063616c6c6572206973206e6f74206120637573746f6469616e5746494c466163746f72793a206d75737420686176652070617573657220726f6c6520746f20756e70617573655746494c466163746f72793a2072657175657374206973206e6f742070656e64696e675746494c466163746f72793a2063616c6c6572206973206e6f74207468652064656661756c742061646d696e5746494c466163746f72793a206d75737420686176652070617573657220726f6c6520746f2070617573653c4a2d89ed8b4cf4347fec87df1c38410f8fc538bf9fd64c10f2717bc0feff365746494c466163746f72793a20696e76616c6964206d65726368616e7420616464726573735361666545524332303a204552433230206f7065726174696f6e20646964206e6f7420737563636565645746494c466163746f72793a20676976656e2072657175657374206861736820646f6573206e6f74206d6174636820612070656e64696e6720726571756573745746494c466163746f72793a206d65726368616e742066696c65636f696e206465706f736974206164647265737320776173206e6f7420736574416363657373436f6e74726f6c3a2063616e206f6e6c792072656e6f756e636520726f6c657320666f722073656c66a26469706673582212206cc3184731f2a993d4ad521aa071df73ac455b3edacbad84f95cef6126b0d9b664736f6c634300060c00335746494c466163746f72793a207766696c20746f6b656e2073657420746f207a65726f2061646472657373",
  "immutableReferences": {
    "415": [
      {
        "length": 32,
        "start": 4410
      },
      {
        "length": 32,
        "start": 6285
      }
    ]
  },
  "source": "/// SPDX-License-Identifier: AGPL-3.0-or-later\npragma solidity 0.6.12;\n\n/// @title WFILFactory\n/// @author Nazzareno Massari @naszam\n/// @notice Wrapped Filecoin (WFIL) Factory\n/// @dev All function calls are currently implemented without side effects through TDD approach\n/// @dev OpenZeppelin library is used for secure contract development\n\nimport \"@openzeppelin/contracts/token/ERC20/SafeERC20.sol\";\nimport \"@openzeppelin/contracts/access/AccessControl.sol\";\nimport \"@openzeppelin/contracts/utils/Pausable.sol\";\nimport \"@openzeppelin/contracts/utils/Counters.sol\";\n\ninterface WFILToken {\n  function wrap(address to, uint256 amount) external returns (bool);\n  function unwrapFrom(address account, uint256 amount) external returns (bool);\n}\n\ncontract WFILFactory is AccessControl, Pausable {\n\n    /// @dev Libraries\n    using Counters for Counters.Counter;\n\n    enum RequestStatus {PENDING, CANCELED, APPROVED, REJECTED}\n\n    struct Request {\n      address requester; // sender of the request.\n      uint256 amount; // amount of fil to mint/burn.\n      string deposit; // custodian's fil address in mint, merchant's fil address in burn.\n      string txId; // filcoin txId for sending/redeeming fil in the mint/burn process.\n      uint256 nonce; // serial number allocated for each request.\n      uint256 timestamp; // time of the request creation.\n      RequestStatus status; // status of the request.\n    }\n\n    /// @dev Contract Owner\n    address private _owner;\n\n    WFILToken internal immutable wfil;\n\n    Counters.Counter private _mintsIdTracker;\n    Counters.Counter private _burnsIdTracker;\n\n    mapping(address => string) public custodian;\n    mapping(address => string) public merchant;\n    mapping(bytes32 => uint256) public mintNonce;\n    mapping(bytes32 => uint256) public burnNonce;\n\n    mapping(uint256 => Request) public mints;\n    mapping(uint256 => Request) public burns;\n\n    /// @dev Library\n    using SafeERC20 for IERC20;\n\n    /// @dev Roles\n    bytes32 public constant CUSTODIAN_ROLE = keccak256(\"CUSTODIAN_ROLE\");\n    bytes32 public constant MERCHANT_ROLE = keccak256(\"MERCHANT_ROLE\");\n    bytes32 public constant PAUSER_ROLE = keccak256(\"PAUSER_ROLE\");\n\n    /// @dev Events\n    event OwnerChanged(address indexed previousOwner, address indexed newOwner);\n    event CustodianDepositSet(address indexed merchant, address indexed custodian, string deposit);\n    event MerchantDepositSet(address indexed merchant, string deposit);\n    event MintRequestAdd(\n        uint indexed nonce,\n        address indexed requester,\n        uint amount,\n        string deposit,\n        string txId,\n        uint timestamp,\n        bytes32 requestHash\n    );\n    event MintRequestCancel(uint indexed nonce, address indexed requester, bytes32 requestHash);\n    event MintConfirmed(\n        uint indexed nonce,\n        address indexed requester,\n        uint amount,\n        string deposit,\n        string txId,\n        uint timestamp,\n        bytes32 requestHash\n    );\n\n    event MintRejected(\n        uint indexed nonce,\n        address indexed requester,\n        uint amount,\n        string deposit,\n        string txId,\n        uint timestamp,\n        bytes32 requestHash\n    );\n\n    event Burned(\n        uint indexed nonce,\n        address indexed requester,\n        uint amount,\n        string deposit,\n        uint timestamp,\n        bytes32 requestHash\n    );\n\n    event BurnConfirmed(\n        uint indexed nonce,\n        address indexed requester,\n        uint amount,\n        string deposit,\n        string txId,\n        uint timestamp,\n        bytes32 inputRequestHash\n    );\n\n    event TokenClaimed(IERC20 indexed token, uint256 amount);\n\n    constructor(address wfil_, address owner_)\n        public\n    {\n        require(wfil_ != address(0), \"WFILFactory: wfil token set to zero address\");\n        require(owner_ != address(0), \"WFILFactory: wfil token set to zero address\");\n\n        _setupRole(DEFAULT_ADMIN_ROLE, owner_);\n        _setupRole(PAUSER_ROLE, owner_);\n\n        _owner = owner_;\n\n        wfil = WFILToken(wfil_);\n\n    }\n\n    /// @notice Fallback function\n    /// @dev Added not payable to revert transactions not matching any other function which send value\n    fallback() external {\n        revert(\"WFILFactory: function not matching any other\");\n    }\n\n    /// @dev Returns the address of the contract owner\n    function owner() public view returns (address) {\n        return _owner;\n    }\n\n\n    /// @notice Change the owner address\n    /// @param newOwner The address of the new owner\n    function setOwner(address newOwner) external {\n        require(hasRole(DEFAULT_ADMIN_ROLE, msg.sender), \"WFILFactory: caller is not the default admin\");\n        require(newOwner != address(0), \"WFILFactory: new owner is the zero address\");\n        grantRole(DEFAULT_ADMIN_ROLE, newOwner);\n        renounceRole(DEFAULT_ADMIN_ROLE, msg.sender);\n        emit OwnerChanged(_owner, newOwner);\n        _owner = newOwner;\n    }\n\n    function setCustodianDeposit(address _merchant, string calldata deposit)\n      external\n      returns (bool)\n    {\n        require(hasRole(CUSTODIAN_ROLE, msg.sender), \"WFILFactory: caller is not a custodian\");\n        require(_merchant != address(0), \"WFILFactory: invalid merchant address\");\n        require(hasRole(MERCHANT_ROLE, _merchant), \"WFILFactory: caller is not a merchant\");\n        require(!_isEmptyString(deposit), \"WFILFactory: invalid asset deposit address\");\n\n        custodian[_merchant] = deposit;\n        emit CustodianDepositSet(_merchant, msg.sender, deposit);\n        return true;\n    }\n\n    function setMerchantDeposit(string calldata deposit)\n        external\n        returns (bool)\n    {\n        require(hasRole(MERCHANT_ROLE, msg.sender), \"WFILFactory: caller is not a merchant\");\n        require(!_isEmptyString(deposit), \"WFILFactory: invalid asset deposit address\");\n\n        merchant[msg.sender] = deposit;\n        emit MerchantDepositSet(msg.sender, deposit);\n        return true;\n    }\n\n    function addMintRequest(uint256 amount, string calldata txId, string calldata deposit)\n        external\n        returns (bool)\n    {\n        require(hasRole(MERCHANT_ROLE, msg.sender), \"WFILFactory: caller is not a merchant\");\n        require(!_isEmptyString(deposit), \"WFILFactory: invalid filecoin deposit address\");\n        require(_compareStrings(deposit, custodian[msg.sender]), \"WFILFactory: wrong filecoin deposit address\");\n\n        uint256 nonce = _mintsIdTracker.current();\n        uint256 timestamp = _timestamp();\n\n        mints[nonce].requester = msg.sender;\n        mints[nonce].amount = amount;\n        mints[nonce].deposit = deposit;\n        mints[nonce].txId = txId;\n        mints[nonce].nonce = nonce;\n        mints[nonce].timestamp = timestamp;\n        mints[nonce].status = RequestStatus.PENDING;\n\n        bytes32 requestHash = _hash(mints[nonce]);\n        mintNonce[requestHash] = nonce;\n        _mintsIdTracker.increment();\n\n        emit MintRequestAdd(nonce, msg.sender, amount, deposit, txId, timestamp, requestHash);\n        return true;\n    }\n\n    function cancelMintRequest(bytes32 requestHash) external returns (bool) {\n        require(hasRole(MERCHANT_ROLE, msg.sender), \"WFILFactory: caller is not a merchant\");\n\n        (uint256 nonce, Request memory request) = _getPendingMintRequest(requestHash);\n\n        require(msg.sender == request.requester, \"WFILFactory: cancel caller is different than pending request initiator\");\n        mints[nonce].status = RequestStatus.CANCELED;\n\n        emit MintRequestCancel(nonce, msg.sender, requestHash);\n        return true;\n    }\n\n    function confirmMintRequest(bytes32 requestHash) external returns (bool) {\n        require(hasRole(CUSTODIAN_ROLE, msg.sender), \"WFILFactory: caller is not a custodian\");\n\n        (uint256 nonce, Request memory request) = _getPendingMintRequest(requestHash);\n\n        mints[nonce].status = RequestStatus.APPROVED;\n\n        emit MintConfirmed(\n            request.nonce,\n            request.requester,\n            request.amount,\n            request.deposit,\n            request.txId,\n            request.timestamp,\n            requestHash\n        );\n\n        require(wfil.wrap(request.requester, request.amount), \"WFILFactory: mint failed\");\n\n        return true;\n    }\n\n    function rejectMintRequest(bytes32 requestHash) external returns (bool) {\n        require(hasRole(CUSTODIAN_ROLE, msg.sender), \"WFILFactory: caller is not a custodian\");\n\n        (uint256 nonce, Request memory request) = _getPendingMintRequest(requestHash);\n\n        mints[nonce].status = RequestStatus.REJECTED;\n\n        emit MintRejected(\n            request.nonce,\n            request.requester,\n            request.amount,\n            request.deposit,\n            request.txId,\n            request.timestamp,\n            requestHash\n        );\n        return true;\n    }\n\n    function burn(uint256 amount) external returns (bool) {\n        require(hasRole(MERCHANT_ROLE, msg.sender), \"WFILFactory: caller is not a merchant\");\n\n        string memory deposit = merchant[msg.sender];\n        require(!_isEmptyString(deposit), \"WFILFactory: merchant filecoin deposit address was not set\");\n\n        uint256 nonce = _burnsIdTracker.current();\n        uint256 timestamp = _timestamp();\n\n        // set txId as empty since it is not known yet.\n        string memory txId = \"\";\n\n        burns[nonce].requester = msg.sender;\n        burns[nonce].amount = amount;\n        burns[nonce].deposit = deposit;\n        burns[nonce].txId = txId;\n        burns[nonce].nonce = nonce;\n        burns[nonce].timestamp = timestamp;\n        burns[nonce].status = RequestStatus.PENDING;\n\n        bytes32 requestHash = _hash(burns[nonce]);\n        burnNonce[requestHash] = nonce;\n        _burnsIdTracker.increment();\n\n        emit Burned(nonce, msg.sender, amount, deposit, timestamp, requestHash);\n\n        require(wfil.unwrapFrom(msg.sender, amount), \"WFILFactory: burn failed\");\n\n        return true;\n    }\n\n    function confirmBurnRequest(bytes32 requestHash, string calldata txId) external returns (bool) {\n        require(hasRole(CUSTODIAN_ROLE, msg.sender), \"WFILFactory: caller is not a custodian\");\n        uint256 nonce;\n        Request memory request;\n\n        (nonce, request) = _getPendingBurnRequest(requestHash);\n\n        burns[nonce].txId = txId;\n        burns[nonce].status = RequestStatus.APPROVED;\n        burnNonce[_hash(burns[nonce])] = nonce;\n\n        emit BurnConfirmed(\n            request.nonce,\n            request.requester,\n            request.amount,\n            request.deposit,\n            txId,\n            request.timestamp,\n            requestHash\n        );\n        return true;\n    }\n\n    function getMintRequest(uint256 nonce)\n        external\n        view\n        returns (\n            uint256 requestNonce,\n            address requester,\n            uint256 amount,\n            string memory deposit,\n            string memory txId,\n            uint256 timestamp,\n            string memory status,\n            bytes32 requestHash\n        )\n    {\n        Request memory request = mints[nonce];\n        string memory statusString = _getStatusString(request.status);\n\n        requestNonce = request.nonce;\n        requester = request.requester;\n        amount = request.amount;\n        deposit = request.deposit;\n        txId = request.txId;\n        timestamp = request.timestamp;\n        status = statusString;\n        requestHash = _hash(request);\n    }\n\n    function getMintRequestsCount() external view returns (uint256 count) {\n        return _mintsIdTracker.current();\n    }\n\n    function getBurnRequest(uint256 nonce)\n        external\n        view\n        returns (\n            uint256 requestNonce,\n            address requester,\n            uint256 amount,\n            string memory deposit,\n            string memory txId,\n            uint256 timestamp,\n            string memory status,\n            bytes32 requestHash\n        )\n    {\n        Request storage request = burns[nonce];\n        string memory statusString = _getStatusString(request.status);\n\n        requestNonce = request.nonce;\n        requester = request.requester;\n        amount = request.amount;\n        deposit = request.deposit;\n        txId = request.txId;\n        timestamp = request.timestamp;\n        status = statusString;\n        requestHash = _hash(request);\n    }\n\n    function getBurnRequestsCount() external view returns (uint256 count) {\n        return _burnsIdTracker.current();\n    }\n\n\n    /// @notice Reclaim all ERC20 compatible tokens\n    /// @dev Access restricted only for Default Admin\n    /// @param token IERC20 address of the token contract\n    function reclaimToken(IERC20 token) external {\n        require(hasRole(DEFAULT_ADMIN_ROLE, msg.sender), \"WFILFactory: caller is not the default admin\");\n        uint256 balance = token.balanceOf(address(this));\n        token.safeTransfer(_owner, balance);\n        emit TokenClaimed(token, balance);\n    }\n\n\n    /// @notice Add a new Custodian\n    /// @dev Access restricted only for Default Admin\n    /// @param account Address of the new Custodian\n    function addCustodian(address account) external returns (bool) {\n        require(hasRole(DEFAULT_ADMIN_ROLE, msg.sender), \"WFILFactory: caller is not the default admin\");\n        require(account != address(0), \"WFILFactory: account is the zero address\");\n        grantRole(CUSTODIAN_ROLE, account);\n    }\n\n    /// @notice Remove a Custodian\n    /// @dev Access restricted only for Default Admin\n    /// @param account Address of the Custodian\n    function removeCustodian(address account) external returns (bool) {\n        require(hasRole(DEFAULT_ADMIN_ROLE, msg.sender), \"WFILFactory: caller is not the default admin\");\n        revokeRole(CUSTODIAN_ROLE, account);\n    }\n\n    /// @notice Add a new Merchant\n    /// @dev Access restricted only for Default Admin\n    /// @param account Address of the new Merchant\n    function addMerchant(address account) external returns (bool) {\n        require(hasRole(DEFAULT_ADMIN_ROLE, msg.sender), \"WFILFactory: caller is not the default admin\");\n        require(account != address(0), \"WFILFactory: account is the zero address\");\n        grantRole(MERCHANT_ROLE, account);\n    }\n\n    /// @notice Remove a Merchant\n    /// @dev Access restricted only for Default Admin\n    /// @param account Address of the Merchant\n    function removeMerchant(address account) external returns (bool) {\n        require(hasRole(DEFAULT_ADMIN_ROLE, msg.sender), \"WFILFactory: caller is not the default admin\");\n        revokeRole(MERCHANT_ROLE, account);\n    }\n\n    /// @notice Pause all the functions\n    /// @dev the caller must have the 'PAUSER_ROLE'\n    function pause() external {\n        require(hasRole(PAUSER_ROLE, msg.sender), \"WFILFactory: must have pauser role to pause\");\n        _pause();\n    }\n\n    /// @notice Unpause all the functions\n    /// @dev the caller must have the 'PAUSER_ROLE'\n    function unpause() external {\n        require(hasRole(PAUSER_ROLE, msg.sender), \"WFILFactory: must have pauser role to unpause\");\n        _unpause();\n    }\n\n    function _compareStrings(string memory a, string memory b) internal pure returns (bool) {\n        return keccak256(abi.encodePacked(a)) == keccak256(abi.encodePacked(b));\n    }\n\n    function _isEmptyString(string memory a) internal pure returns (bool) {\n       return _compareStrings(a, \"\");\n   }\n\n   function _timestamp() internal view returns (uint256) {\n    // timestamp is only used for data maintaining purpose, it is not relied on for critical logic.\n    return block.timestamp;\n   }\n\n  function _hash(Request memory request) internal pure returns (bytes32) {\n      return keccak256(abi.encode(\n          request.requester,\n          request.amount,\n          request.deposit,\n          request.txId,\n          request.nonce,\n          request.timestamp\n      ));\n  }\n\n  function _getPendingMintRequest(bytes32 requestHash) internal view returns (uint nonce, Request memory request) {\n      require(requestHash != 0, \"WFILFactory: request hash is 0\");\n      nonce = mintNonce[requestHash];\n      request = mints[nonce];\n      _check(request, requestHash);\n  }\n\n  function _getPendingBurnRequest(bytes32 requestHash) internal view returns (uint nonce, Request memory request) {\n      require(requestHash != 0, \"WFILFactory: request hash is 0\");\n      nonce = burnNonce[requestHash];\n      request = burns[nonce];\n      _check(request, requestHash);\n  }\n\n  function _check(Request memory request, bytes32 requestHash) internal pure {\n      require(request.status == RequestStatus.PENDING, \"WFILFactory: request is not pending\");\n      require(requestHash == _hash(request), \"WFILFactory: given request hash does not match a pending request\");\n  }\n\n  function _getStatusString(RequestStatus status) internal pure returns (string memory) {\n      if (status == RequestStatus.PENDING) return \"pending\";\n      else if (status == RequestStatus.CANCELED) return \"canceled\";\n      else if (status == RequestStatus.APPROVED) return \"approved\";\n      else if (status == RequestStatus.REJECTED) return \"rejected\";\n      else return \"unknown\";\n  }\n\n}\n",
  "sourcePath": "/home/hackfs/wfil-dao/contracts/WFILFactory.sol",
  "compiler": {
    "name": "solc",
    "version": "0.6.12+commit.27d51765.Emscripten.clang"
  },
  "schemaVersion": "3.3.1",
  "updatedAt": "2020-11-30T23:56:48.940Z",
  "networkType": "ethereum",
  "devdoc": {
    "events": {
      "OwnerChanged(address,address)": {
        "details": "Events"
      }
    },
    "kind": "dev",
    "methods": {
      "addCustodian(address)": {
        "details": "Access restricted only for Default Admin",
        "params": {
          "account": "Address of the new Custodian"
        }
      },
      "addMerchant(address)": {
        "details": "Access restricted only for Default Admin",
        "params": {
          "account": "Address of the new Merchant"
        }
      },
      "getRoleAdmin(bytes32)": {
        "details": "Returns the admin role that controls `role`. See {grantRole} and {revokeRole}. To change a role's admin, use {_setRoleAdmin}."
      },
      "getRoleMember(bytes32,uint256)": {
        "details": "Returns one of the accounts that have `role`. `index` must be a value between 0 and {getRoleMemberCount}, non-inclusive. Role bearers are not sorted in any particular way, and their ordering may change at any point. WARNING: When using {getRoleMember} and {getRoleMemberCount}, make sure you perform all queries on the same block. See the following https://forum.openzeppelin.com/t/iterating-over-elements-on-enumerableset-in-openzeppelin-contracts/2296[forum post] for more information."
      },
      "getRoleMemberCount(bytes32)": {
        "details": "Returns the number of accounts that have `role`. Can be used together with {getRoleMember} to enumerate all bearers of a role."
      },
      "grantRole(bytes32,address)": {
        "details": "Grants `role` to `account`. If `account` had not been already granted `role`, emits a {RoleGranted} event. Requirements: - the caller must have ``role``'s admin role."
      },
      "hasRole(bytes32,address)": {
        "details": "Returns `true` if `account` has been granted `role`."
      },
      "owner()": {
        "details": "Returns the address of the contract owner"
      },
      "pause()": {
        "details": "the caller must have the 'PAUSER_ROLE'"
      },
      "paused()": {
        "details": "Returns true if the contract is paused, and false otherwise."
      },
      "reclaimToken(address)": {
        "details": "Access restricted only for Default Admin",
        "params": {
          "token": "IERC20 address of the token contract"
        }
      },
      "removeCustodian(address)": {
        "details": "Access restricted only for Default Admin",
        "params": {
          "account": "Address of the Custodian"
        }
      },
      "removeMerchant(address)": {
        "details": "Access restricted only for Default Admin",
        "params": {
          "account": "Address of the Merchant"
        }
      },
      "renounceRole(bytes32,address)": {
        "details": "Revokes `role` from the calling account. Roles are often managed via {grantRole} and {revokeRole}: this function's purpose is to provide a mechanism for accounts to lose their privileges if they are compromised (such as when a trusted device is misplaced). If the calling account had been granted `role`, emits a {RoleRevoked} event. Requirements: - the caller must be `account`."
      },
      "revokeRole(bytes32,address)": {
        "details": "Revokes `role` from `account`. If `account` had been granted `role`, emits a {RoleRevoked} event. Requirements: - the caller must have ``role``'s admin role."
      },
      "setOwner(address)": {
        "params": {
          "newOwner": "The address of the new owner"
        }
      },
      "unpause()": {
        "details": "the caller must have the 'PAUSER_ROLE'"
      }
    },
    "stateVariables": {
      "CUSTODIAN_ROLE": {
        "details": "Roles"
      },
      "_owner": {
        "details": "Contract Owner"
      }
    },
    "version": 1
  },
  "userdoc": {
    "kind": "user",
    "methods": {
      "addCustodian(address)": {
        "notice": "Add a new Custodian"
      },
      "addMerchant(address)": {
        "notice": "Add a new Merchant"
      },
      "pause()": {
        "notice": "Pause all the functions"
      },
      "reclaimToken(address)": {
        "notice": "Reclaim all ERC20 compatible tokens"
      },
      "removeCustodian(address)": {
        "notice": "Remove a Custodian"
      },
      "removeMerchant(address)": {
        "notice": "Remove a Merchant"
      },
      "setOwner(address)": {
        "notice": "Change the owner address"
      },
      "unpause()": {
        "notice": "Unpause all the functions"
      }
    },
    "version": 1
  }
}