{
  "contractName": "WFIL",
  "abi": [
    {
      "inputs": [
        {
          "internalType": "address",
          "name": "dao_",
          "type": "address"
        }
      ],
      "stateMutability": "nonpayable",
      "type": "constructor"
    },
    {
      "anonymous": false,
      "inputs": [
        {
          "indexed": true,
          "internalType": "address",
          "name": "owner",
          "type": "address"
        },
        {
          "indexed": true,
          "internalType": "address",
          "name": "spender",
          "type": "address"
        },
        {
          "indexed": false,
          "internalType": "uint256",
          "name": "value",
          "type": "uint256"
        }
      ],
      "name": "Approval",
      "type": "event"
    },
    {
      "anonymous": false,
      "inputs": [
        {
          "indexed": false,
          "internalType": "address",
          "name": "account",
          "type": "address"
        }
      ],
      "name": "Paused",
      "type": "event"
    },
    {
      "anonymous": false,
      "inputs": [
        {
          "indexed": true,
          "internalType": "bytes32",
          "name": "role",
          "type": "bytes32"
        },
        {
          "indexed": true,
          "internalType": "bytes32",
          "name": "previousAdminRole",
          "type": "bytes32"
        },
        {
          "indexed": true,
          "internalType": "bytes32",
          "name": "newAdminRole",
          "type": "bytes32"
        }
      ],
      "name": "RoleAdminChanged",
      "type": "event"
    },
    {
      "anonymous": false,
      "inputs": [
        {
          "indexed": true,
          "internalType": "bytes32",
          "name": "role",
          "type": "bytes32"
        },
        {
          "indexed": true,
          "internalType": "address",
          "name": "account",
          "type": "address"
        },
        {
          "indexed": true,
          "internalType": "address",
          "name": "sender",
          "type": "address"
        }
      ],
      "name": "RoleGranted",
      "type": "event"
    },
    {
      "anonymous": false,
      "inputs": [
        {
          "indexed": true,
          "internalType": "bytes32",
          "name": "role",
          "type": "bytes32"
        },
        {
          "indexed": true,
          "internalType": "address",
          "name": "account",
          "type": "address"
        },
        {
          "indexed": true,
          "internalType": "address",
          "name": "sender",
          "type": "address"
        }
      ],
      "name": "RoleRevoked",
      "type": "event"
    },
    {
      "anonymous": false,
      "inputs": [
        {
          "indexed": true,
          "internalType": "address",
          "name": "from",
          "type": "address"
        },
        {
          "indexed": true,
          "internalType": "address",
          "name": "to",
          "type": "address"
        },
        {
          "indexed": false,
          "internalType": "uint256",
          "name": "value",
          "type": "uint256"
        }
      ],
      "name": "Transfer",
      "type": "event"
    },
    {
      "anonymous": false,
      "inputs": [
        {
          "indexed": false,
          "internalType": "address",
          "name": "account",
          "type": "address"
        }
      ],
      "name": "Unpaused",
      "type": "event"
    },
    {
      "anonymous": false,
      "inputs": [
        {
          "indexed": true,
          "internalType": "address",
          "name": "account",
          "type": "address"
        },
        {
          "indexed": false,
          "internalType": "uint256",
          "name": "amount",
          "type": "uint256"
        }
      ],
      "name": "Unwrapped",
      "type": "event"
    },
    {
      "anonymous": false,
      "inputs": [
        {
          "indexed": true,
          "internalType": "address",
          "name": "account",
          "type": "address"
        },
        {
          "indexed": false,
          "internalType": "uint256",
          "name": "amount",
          "type": "uint256"
        }
      ],
      "name": "UnwrappedFrom",
      "type": "event"
    },
    {
      "anonymous": false,
      "inputs": [
        {
          "indexed": true,
          "internalType": "address",
          "name": "to",
          "type": "address"
        },
        {
          "indexed": false,
          "internalType": "uint256",
          "name": "amount",
          "type": "uint256"
        }
      ],
      "name": "Wrapped",
      "type": "event"
    },
    {
      "stateMutability": "nonpayable",
      "type": "fallback"
    },
    {
      "inputs": [],
      "name": "DEFAULT_ADMIN_ROLE",
      "outputs": [
        {
          "internalType": "bytes32",
          "name": "",
          "type": "bytes32"
        }
      ],
      "stateMutability": "view",
      "type": "function",
      "constant": true
    },
    {
      "inputs": [],
      "name": "MINTER_ROLE",
      "outputs": [
        {
          "internalType": "bytes32",
          "name": "",
          "type": "bytes32"
        }
      ],
      "stateMutability": "view",
      "type": "function",
      "constant": true
    },
    {
      "inputs": [],
      "name": "PAUSER_ROLE",
      "outputs": [
        {
          "internalType": "bytes32",
          "name": "",
          "type": "bytes32"
        }
      ],
      "stateMutability": "view",
      "type": "function",
      "constant": true
    },
    {
      "inputs": [
        {
          "internalType": "address",
          "name": "owner",
          "type": "address"
        },
        {
          "internalType": "address",
          "name": "spender",
          "type": "address"
        }
      ],
      "name": "allowance",
      "outputs": [
        {
          "internalType": "uint256",
          "name": "",
          "type": "uint256"
        }
      ],
      "stateMutability": "view",
      "type": "function",
      "constant": true
    },
    {
      "inputs": [
        {
          "internalType": "address",
          "name": "spender",
          "type": "address"
        },
        {
          "internalType": "uint256",
          "name": "amount",
          "type": "uint256"
        }
      ],
      "name": "approve",
      "outputs": [
        {
          "internalType": "bool",
          "name": "",
          "type": "bool"
        }
      ],
      "stateMutability": "nonpayable",
      "type": "function"
    },
    {
      "inputs": [
        {
          "internalType": "address",
          "name": "account",
          "type": "address"
        }
      ],
      "name": "balanceOf",
      "outputs": [
        {
          "internalType": "uint256",
          "name": "",
          "type": "uint256"
        }
      ],
      "stateMutability": "view",
      "type": "function",
      "constant": true
    },
    {
      "inputs": [],
      "name": "decimals",
      "outputs": [
        {
          "internalType": "uint8",
          "name": "",
          "type": "uint8"
        }
      ],
      "stateMutability": "view",
      "type": "function",
      "constant": true
    },
    {
      "inputs": [
        {
          "internalType": "address",
          "name": "spender",
          "type": "address"
        },
        {
          "internalType": "uint256",
          "name": "subtractedValue",
          "type": "uint256"
        }
      ],
      "name": "decreaseAllowance",
      "outputs": [
        {
          "internalType": "bool",
          "name": "",
          "type": "bool"
        }
      ],
      "stateMutability": "nonpayable",
      "type": "function"
    },
    {
      "inputs": [
        {
          "internalType": "bytes32",
          "name": "role",
          "type": "bytes32"
        }
      ],
      "name": "getRoleAdmin",
      "outputs": [
        {
          "internalType": "bytes32",
          "name": "",
          "type": "bytes32"
        }
      ],
      "stateMutability": "view",
      "type": "function",
      "constant": true
    },
    {
      "inputs": [
        {
          "internalType": "bytes32",
          "name": "role",
          "type": "bytes32"
        },
        {
          "internalType": "uint256",
          "name": "index",
          "type": "uint256"
        }
      ],
      "name": "getRoleMember",
      "outputs": [
        {
          "internalType": "address",
          "name": "",
          "type": "address"
        }
      ],
      "stateMutability": "view",
      "type": "function",
      "constant": true
    },
    {
      "inputs": [
        {
          "internalType": "bytes32",
          "name": "role",
          "type": "bytes32"
        }
      ],
      "name": "getRoleMemberCount",
      "outputs": [
        {
          "internalType": "uint256",
          "name": "",
          "type": "uint256"
        }
      ],
      "stateMutability": "view",
      "type": "function",
      "constant": true
    },
    {
      "inputs": [
        {
          "internalType": "bytes32",
          "name": "role",
          "type": "bytes32"
        },
        {
          "internalType": "address",
          "name": "account",
          "type": "address"
        }
      ],
      "name": "grantRole",
      "outputs": [],
      "stateMutability": "nonpayable",
      "type": "function"
    },
    {
      "inputs": [
        {
          "internalType": "bytes32",
          "name": "role",
          "type": "bytes32"
        },
        {
          "internalType": "address",
          "name": "account",
          "type": "address"
        }
      ],
      "name": "hasRole",
      "outputs": [
        {
          "internalType": "bool",
          "name": "",
          "type": "bool"
        }
      ],
      "stateMutability": "view",
      "type": "function",
      "constant": true
    },
    {
      "inputs": [
        {
          "internalType": "address",
          "name": "spender",
          "type": "address"
        },
        {
          "internalType": "uint256",
          "name": "addedValue",
          "type": "uint256"
        }
      ],
      "name": "increaseAllowance",
      "outputs": [
        {
          "internalType": "bool",
          "name": "",
          "type": "bool"
        }
      ],
      "stateMutability": "nonpayable",
      "type": "function"
    },
    {
      "inputs": [],
      "name": "name",
      "outputs": [
        {
          "internalType": "string",
          "name": "",
          "type": "string"
        }
      ],
      "stateMutability": "view",
      "type": "function",
      "constant": true
    },
    {
      "inputs": [],
      "name": "paused",
      "outputs": [
        {
          "internalType": "bool",
          "name": "",
          "type": "bool"
        }
      ],
      "stateMutability": "view",
      "type": "function",
      "constant": true
    },
    {
      "inputs": [
        {
          "internalType": "bytes32",
          "name": "role",
          "type": "bytes32"
        },
        {
          "internalType": "address",
          "name": "account",
          "type": "address"
        }
      ],
      "name": "renounceRole",
      "outputs": [],
      "stateMutability": "nonpayable",
      "type": "function"
    },
    {
      "inputs": [
        {
          "internalType": "bytes32",
          "name": "role",
          "type": "bytes32"
        },
        {
          "internalType": "address",
          "name": "account",
          "type": "address"
        }
      ],
      "name": "revokeRole",
      "outputs": [],
      "stateMutability": "nonpayable",
      "type": "function"
    },
    {
      "inputs": [],
      "name": "symbol",
      "outputs": [
        {
          "internalType": "string",
          "name": "",
          "type": "string"
        }
      ],
      "stateMutability": "view",
      "type": "function",
      "constant": true
    },
    {
      "inputs": [],
      "name": "totalSupply",
      "outputs": [
        {
          "internalType": "uint256",
          "name": "",
          "type": "uint256"
        }
      ],
      "stateMutability": "view",
      "type": "function",
      "constant": true
    },
    {
      "inputs": [
        {
          "internalType": "address",
          "name": "recipient",
          "type": "address"
        },
        {
          "internalType": "uint256",
          "name": "amount",
          "type": "uint256"
        }
      ],
      "name": "transfer",
      "outputs": [
        {
          "internalType": "bool",
          "name": "",
          "type": "bool"
        }
      ],
      "stateMutability": "nonpayable",
      "type": "function"
    },
    {
      "inputs": [
        {
          "internalType": "address",
          "name": "sender",
          "type": "address"
        },
        {
          "internalType": "address",
          "name": "recipient",
          "type": "address"
        },
        {
          "internalType": "uint256",
          "name": "amount",
          "type": "uint256"
        }
      ],
      "name": "transferFrom",
      "outputs": [
        {
          "internalType": "bool",
          "name": "",
          "type": "bool"
        }
      ],
      "stateMutability": "nonpayable",
      "type": "function"
    },
    {
      "inputs": [
        {
          "internalType": "address",
          "name": "to",
          "type": "address"
        },
        {
          "internalType": "uint256",
          "name": "amount",
          "type": "uint256"
        }
      ],
      "name": "wrap",
      "outputs": [
        {
          "internalType": "bool",
          "name": "",
          "type": "bool"
        }
      ],
      "stateMutability": "nonpayable",
      "type": "function"
    },
    {
      "inputs": [
        {
          "internalType": "uint256",
          "name": "amount",
          "type": "uint256"
        }
      ],
      "name": "unwrap",
      "outputs": [
        {
          "internalType": "bool",
          "name": "",
          "type": "bool"
        }
      ],
      "stateMutability": "nonpayable",
      "type": "function"
    },
    {
      "inputs": [
        {
          "internalType": "address",
          "name": "account",
          "type": "address"
        },
        {
          "internalType": "uint256",
          "name": "amount",
          "type": "uint256"
        }
      ],
      "name": "unwrapFrom",
      "outputs": [
        {
          "internalType": "bool",
          "name": "",
          "type": "bool"
        }
      ],
      "stateMutability": "nonpayable",
      "type": "function"
    },
    {
      "inputs": [
        {
          "internalType": "address",
          "name": "account",
          "type": "address"
        }
      ],
      "name": "addMinter",
      "outputs": [
        {
          "internalType": "bool",
          "name": "",
          "type": "bool"
        }
      ],
      "stateMutability": "nonpayable",
      "type": "function"
    },
    {
      "inputs": [
        {
          "internalType": "address",
          "name": "account",
          "type": "address"
        }
      ],
      "name": "removeMinter",
      "outputs": [
        {
          "internalType": "bool",
          "name": "",
          "type": "bool"
        }
      ],
      "stateMutability": "nonpayable",
      "type": "function"
    },
    {
      "inputs": [],
      "name": "pause",
      "outputs": [],
      "stateMutability": "nonpayable",
      "type": "function"
    },
    {
      "inputs": [],
      "name": "unpause",
      "outputs": [],
      "stateMutability": "nonpayable",
      "type": "function"
    }
  ],
  "bytecode": "0x60806040523480156200001157600080fd5b506040516200208638038062002086833981810160405260208110156200003757600080fd5b5051604080518082018252601081527f577261707065642046696c65636f696e0000000000000000000000000000000060208281019182528351808501909452600484527f5746494c00000000000000000000000000000000000000000000000000000000908401528151919291620000b391600391620002e8565b508051620000c9906004906020840190620002e8565b50506005805460ff1990811660121790915560078054909116905550600160a060020a0381166200015b57604080517f08c379a000000000000000000000000000000000000000000000000000000000815260206004820152601d60248201527f5746494c3a2064616f2073657420746f207a65726f2061646472657373000000604482015290519081900360640190fd5b62000171600082640100000000620001ad810204565b620001a67f65d7a28e3265b37a6474929f336521b332c1681b933f6cb9f3376673440d862a82640100000000620001ad810204565b5062000384565b620001c28282640100000000620001c6810204565b5050565b6000828152600660205260409020620001ee908264010000000062000f716200024b82021704565b15620001c2576200020764010000000062000274810204565b600160a060020a031681600160a060020a0316837f2f8788117e7eff1d82e926ec794901d17c78024a50270940304540a733656f0d60405160405180910390a45050565b60006200026b83600160a060020a03841664010000000062000278810204565b90505b92915050565b3390565b60006200028f8383640100000000620002d0810204565b620002c7575081546001818101845560008481526020808220909301849055845484825282860190935260409020919091556200026e565b5060006200026e565b60009081526001919091016020526040902054151590565b828054600181600116156101000203166002900490600052602060002090601f016020900481019282601f106200032b57805160ff19168380011785556200035b565b828001600101855582156200035b579182015b828111156200035b5782518255916020019190600101906200033e565b50620003699291506200036d565b5090565b5b808211156200036957600081556001016200036e565b611cf280620003946000396000f3fe608060405234801561001057600080fd5b50600436106101ec576000357c0100000000000000000000000000000000000000000000000000000000900480639010d07c11610121578063bf376c7a116100bf578063dd62ed3e1161008e578063dd62ed3e146105ce578063de0e9a3e146105fc578063e63ab1e914610619578063ff271af114610621576101ec565b8063bf376c7a14610551578063ca15c8731461057d578063d53913931461059a578063d547741f146105a2576101ec565b8063983b2d56116100fb578063983b2d56146104cb578063a217fddf146104f1578063a457c2d7146104f9578063a9059cbb14610525576101ec565b80639010d07c1461045857806391d148541461049757806395d89b41146104c3576101ec565b8063313ce5671161018e5780633f4ba83a116101685780633f4ba83a1461041a5780635c975abb1461042257806370a082311461042a5780638456cb5914610450576101ec565b8063313ce567146103a457806336568abe146103c257806339509351146103ee576101ec565b806323b872dd116101ca57806323b872dd146102fd578063248a9ca3146103335780632f2ff15d146103505780633092afd51461037e576101ec565b806306fdde0314610226578063095ea7b3146102a357806318160ddd146102e3575b60405160e560020a62461bcd028152600401808060200182810382526025815260200180611b4b6025913960400191505060405180910390fd5b61022e61064d565b6040805160208082528351818301528351919283929083019185019080838360005b83811015610268578181015183820152602001610250565b50505050905090810190601f1680156102955780820380516001836020036101000a031916815260200191505b509250505060405180910390f35b6102cf600480360360408110156102b957600080fd5b50600160a060020a0381351690602001356106e3565b604080519115158252519081900360200190f35b6102eb610701565b60408051918252519081900360200190f35b6102cf6004803603606081101561031357600080fd5b50600160a060020a03813581169160208101359091169060400135610707565b6102eb6004803603602081101561034957600080fd5b503561078e565b61037c6004803603604081101561036657600080fd5b5080359060200135600160a060020a03166107a6565b005b6102cf6004803603602081101561039457600080fd5b5035600160a060020a0316610815565b6103ac610877565b6040805160ff9092168252519081900360200190f35b61037c600480360360408110156103d857600080fd5b5080359060200135600160a060020a0316610880565b6102cf6004803603604081101561040457600080fd5b50600160a060020a0381351690602001356108e4565b61037c610932565b6102cf6109a4565b6102eb6004803603602081101561044057600080fd5b5035600160a060020a03166109ad565b61037c6109c8565b61047b6004803603604081101561046e57600080fd5b5080359060200135610a38565b60408051600160a060020a039092168252519081900360200190f35b6102cf600480360360408110156104ad57600080fd5b5080359060200135600160a060020a0316610a57565b61022e610a6f565b6102cf600480360360208110156104e157600080fd5b5035600160a060020a0316610ad0565b6102eb610b7a565b6102cf6004803603604081101561050f57600080fd5b50600160a060020a038135169060200135610b7f565b6102cf6004803603604081101561053b57600080fd5b50600160a060020a038135169060200135610be7565b6102cf6004803603604081101561056757600080fd5b50600160a060020a038135169060200135610bfb565b6102eb6004803603602081101561059357600080fd5b5035610d13565b6102eb610d2a565b61037c600480360360408110156105b857600080fd5b5080359060200135600160a060020a0316610d3c565b6102eb600480360360408110156105e457600080fd5b50600160a060020a0381358116916020013516610d98565b6102cf6004803603602081101561061257600080fd5b5035610dc3565b6102eb610e64565b6102cf6004803603604081101561063757600080fd5b50600160a060020a038135169060200135610e88565b60038054604080516020601f60026000196101006001881615020190951694909404938401819004810282018101909252828152606093909290918301828280156106d95780601f106106ae576101008083540402835291602001916106d9565b820191906000526020600020905b8154815290600101906020018083116106bc57829003601f168201915b5050505050905090565b60006106f76106f0610f86565b8484610f8a565b5060015b92915050565b60025490565b600061071484848461107c565b61078484610720610f86565b61077f85604051806060016040528060288152602001611b2360289139600160a060020a038a1660009081526001602052604081209061075e610f86565b600160a060020a0316815260208101919091526040016000205491906111dd565b610f8a565b5060019392505050565b6000818152600660205260409020600201545b919050565b6000828152600660205260409020600201546107c9906107c4610f86565b610a57565b6108075760405160e560020a62461bcd02815260040180806020018281038252602f8152602001806119d1602f913960400191505060405180910390fd5b6108118282611277565b5050565b60006108218133610a57565b61085f5760405160e560020a62461bcd028152600401808060200182810382526025815260200180611c446025913960400191505060405180910390fd5b6107a1600080516020611b9683398151915283610d3c565b60055460ff1690565b610888610f86565b600160a060020a031681600160a060020a0316146108da5760405160e560020a62461bcd02815260040180806020018281038252602f815260200180611c8e602f913960400191505060405180910390fd5b61081182826112e0565b60006106f76108f1610f86565b8461077f8560016000610902610f86565b600160a060020a03908116825260208083019390935260409182016000908120918c168152925290205490611349565b61095c7f65d7a28e3265b37a6474929f336521b332c1681b933f6cb9f3376673440d862a33610a57565b61099a5760405160e560020a62461bcd028152600401808060200182810382526026815260200180611b706026913960400191505060405180910390fd5b6109a26113a6565b565b60075460ff1690565b600160a060020a031660009081526020819052604090205490565b6109f27f65d7a28e3265b37a6474929f336521b332c1681b933f6cb9f3376673440d862a33610a57565b610a305760405160e560020a62461bcd028152600401808060200182810382526024815260200180611c206024913960400191505060405180910390fd5b6109a2611450565b6000828152600660205260408120610a5090836114e1565b9392505050565b6000828152600660205260408120610a5090836114ed565b60048054604080516020601f60026000196101006001881615020190951694909404938401819004810282018101909252828152606093909290918301828280156106d95780601f106106ae576101008083540402835291602001916106d9565b6000610adc8133610a57565b610b1a5760405160e560020a62461bcd028152600401808060200182810382526025815260200180611c446025913960400191505060405180910390fd5b600160a060020a038216610b625760405160e560020a62461bcd028152600401808060200182810382526021815260200180611b026021913960400191505060405180910390fd5b6107a1600080516020611b96833981519152836107a6565b600081565b60006106f7610b8c610f86565b8461077f85604051806060016040528060258152602001611c696025913960016000610bb6610f86565b600160a060020a03908116825260208083019390935260409182016000908120918d168152925290205491906111dd565b60006106f7610bf4610f86565b848461107c565b6000610c15600080516020611b9683398151915233610a57565b610c69576040805160e560020a62461bcd02815260206004820152601c60248201527f5746494c3a2063616c6c6572206973206e6f742061206d696e74657200000000604482015290519081900360640190fd5b60008211610cc1576040805160e560020a62461bcd02815260206004820152601460248201527f5746494c3a20616d6f756e74206973207a65726f000000000000000000000000604482015290519081900360640190fd5b610ccb8383611502565b604080518381529051600160a060020a038516917f4700c1726b4198077cd40320a32c45265a1910521eb0ef713dd1d8412413d7fc919081900360200190a250600192915050565b60008181526006602052604081206106fb906115f5565b600080516020611b9683398151915281565b600082815260066020526040902060020154610d5a906107c4610f86565b6108da5760405160e560020a62461bcd028152600401808060200182810382526030815260200180611a8d6030913960400191505060405180910390fd5b600160a060020a03918216600090815260016020908152604080832093909416825291909152205490565b6000808211610e1c576040805160e560020a62461bcd02815260206004820152601460248201527f5746494c3a20616d6f756e74206973207a65726f000000000000000000000000604482015290519081900360640190fd5b610e263383611600565b60408051838152905133917f95ae649bfaaef9def56a52f4fb2d9e8fa5496bb7082930e442c74cc76b03dcb3919081900360200190a2506001919050565b7f65d7a28e3265b37a6474929f336521b332c1681b933f6cb9f3376673440d862a81565b6000808211610ee1576040805160e560020a62461bcd02815260206004820152601460248201527f5746494c3a20616d6f756e74206973207a65726f000000000000000000000000604482015290519081900360640190fd5b6000610f1183604051806060016040528060238152602001611a6a60239139610f0a8733610d98565b91906111dd565b9050610f1e843383610f8a565b610f288484611600565b604080518481529051600160a060020a038616917f7acb673c9aef25458748771a511f64166c66b46ad18276afe73aaa11be1ee73d919081900360200190a25060019392505050565b6000610a5083600160a060020a0384166116ff565b3390565b600160a060020a038316610fd25760405160e560020a62461bcd028152600401808060200182810382526024815260200180611bfc6024913960400191505060405180910390fd5b600160a060020a03821661101a5760405160e560020a62461bcd028152600401808060200182810382526022815260200180611a226022913960400191505060405180910390fd5b600160a060020a03808416600081815260016020908152604080832094871680845294825291829020859055815185815291517f8c5be1e5ebec7d5bd14f71427d1e84f3dd0314c0f7b2291e5b200ac8c7c3b9259281900390910190a3505050565b600160a060020a0383166110c45760405160e560020a62461bcd028152600401808060200182810382526025815260200180611bd76025913960400191505060405180910390fd5b600160a060020a03821661110c5760405160e560020a62461bcd0281526004018080602001828103825260238152602001806119ae6023913960400191505060405180910390fd5b611117838383611749565b61115481604051806060016040528060268152602001611a4460269139600160a060020a03861660009081526020819052604090205491906111dd565b600160a060020a0380851660009081526020819052604080822093909355908416815220546111839082611349565b600160a060020a038084166000818152602081815260409182902094909455805185815290519193928716927fddf252ad1be2c89b69c2b068fc378daa952ba7f163c4a11628f55a4df523b3ef92918290030190a3505050565b6000818484111561126f5760405160e560020a62461bcd0281526004018080602001828103825283818151815260200191508051906020019080838360005b8381101561123457818101518382015260200161121c565b50505050905090810190601f1680156112615780820380516001836020036101000a031916815260200191505b509250505060405180910390fd5b505050900390565b600082815260066020526040902061128f9082610f71565b156108115761129c610f86565b600160a060020a031681600160a060020a0316837f2f8788117e7eff1d82e926ec794901d17c78024a50270940304540a733656f0d60405160405180910390a45050565b60008281526006602052604090206112f890826117eb565b1561081157611305610f86565b600160a060020a031681600160a060020a0316837ff6391f5c32d9c69d2a47ea670b442974b53935d1edc7fd64eb21e047a839171b60405160405180910390a45050565b600082820183811015610a50576040805160e560020a62461bcd02815260206004820152601b60248201527f536166654d6174683a206164646974696f6e206f766572666c6f770000000000604482015290519081900360640190fd5b60075460ff16611400576040805160e560020a62461bcd02815260206004820152601460248201527f5061757361626c653a206e6f7420706175736564000000000000000000000000604482015290519081900360640190fd5b6007805460ff191690557f5db9ee0a495bf2e6ff9c91a7834c1ba4fdd244a5e8aa4e537bd38aeae4b073aa611433610f86565b60408051600160a060020a039092168252519081900360200190a1565b60075460ff16156114ab576040805160e560020a62461bcd02815260206004820152601060248201527f5061757361626c653a2070617573656400000000000000000000000000000000604482015290519081900360640190fd5b6007805460ff191660011790557f62e78cea01bee320cd4e420270b5ea74000d11b0c9f74754ebdbfc544b05a258611433610f86565b6000610a508383611800565b6000610a5083600160a060020a038416611867565b600160a060020a038216611560576040805160e560020a62461bcd02815260206004820152601f60248201527f45524332303a206d696e7420746f20746865207a65726f206164647265737300604482015290519081900360640190fd5b61156c60008383611749565b6002546115799082611349565b600255600160a060020a03821660009081526020819052604090205461159f9082611349565b600160a060020a0383166000818152602081815260408083209490945583518581529351929391927fddf252ad1be2c89b69c2b068fc378daa952ba7f163c4a11628f55a4df523b3ef9281900390910190a35050565b60006106fb8261187f565b600160a060020a0382166116485760405160e560020a62461bcd028152600401808060200182810382526021815260200180611bb66021913960400191505060405180910390fd5b61165482600083611749565b61169181604051806060016040528060228152602001611a0060229139600160a060020a03851660009081526020819052604090205491906111dd565b600160a060020a0383166000908152602081905260409020556002546116b79082611883565b600255604080518281529051600091600160a060020a038516917fddf252ad1be2c89b69c2b068fc378daa952ba7f163c4a11628f55a4df523b3ef9181900360200190a35050565b600061170b8383611867565b611741575081546001818101845560008481526020808220909301849055845484825282860190935260409020919091556106fb565b5060006106fb565b600160a060020a0382163014156117945760405160e560020a62461bcd028152600401808060200182810382526024815260200180611ade6024913960400191505060405180910390fd5b61179f8383836117e6565b6117a76109a4565b156117e65760405160e560020a62461bcd028152600401808060200182810382526021815260200180611abd6021913960400191505060405180910390fd5b505050565b6000610a5083600160a060020a0384166118c5565b815460009082106118455760405160e560020a62461bcd02815260040180806020018281038252602281526020018061198c6022913960400191505060405180910390fd5b82600001828154811061185457fe5b9060005260206000200154905092915050565b60009081526001919091016020526040902054151590565b5490565b6000610a5083836040518060400160405280601e81526020017f536166654d6174683a207375627472616374696f6e206f766572666c6f7700008152506111dd565b6000818152600183016020526040812054801561198157835460001980830191908101906000908790839081106118f857fe5b906000526020600020015490508087600001848154811061191557fe5b60009182526020808320909101929092558281526001898101909252604090209084019055865487908061194557fe5b600190038181906000526020600020016000905590558660010160008781526020019081526020016000206000905560019450505050506106fb565b60009150506106fb56fe456e756d657261626c655365743a20696e646578206f7574206f6620626f756e647345524332303a207472616e7366657220746f20746865207a65726f2061646472657373416363657373436f6e74726f6c3a2073656e646572206d75737420626520616e2061646d696e20746f206772616e7445524332303a206275726e20616d6f756e7420657863656564732062616c616e636545524332303a20617070726f766520746f20746865207a65726f206164647265737345524332303a207472616e7366657220616d6f756e7420657863656564732062616c616e63655746494c3a206275726e20616d6f756e74206578636565647320616c6c6f77616e6365416363657373436f6e74726f6c3a2073656e646572206d75737420626520616e2061646d696e20746f207265766f6b655746494c3a20746f6b656e207472616e73666572207768696c65207061757365645746494c3a207472616e7366657220746f2074686520746f6b656e20636f6e74726163745746494c3a206163636f756e7420697320746865207a65726f206164647265737345524332303a207472616e7366657220616d6f756e74206578636565647320616c6c6f77616e63655746494c3a2066756e6374696f6e206e6f74206d61746368696e6720616e79206f746865725746494c3a206d75737420686176652070617573657220726f6c6520746f20756e70617573659f2df0fed2c77648de5860a4cc508cd0818c85b8b8a1ab4ceeef8d981c8956a645524332303a206275726e2066726f6d20746865207a65726f206164647265737345524332303a207472616e736665722066726f6d20746865207a65726f206164647265737345524332303a20617070726f76652066726f6d20746865207a65726f20616464726573735746494c3a206d75737420686176652070617573657220726f6c6520746f2070617573655746494c3a2063616c6c6572206973206e6f74207468652064656661756c742061646d696e45524332303a2064656372656173656420616c6c6f77616e63652062656c6f77207a65726f416363657373436f6e74726f6c3a2063616e206f6e6c792072656e6f756e636520726f6c657320666f722073656c66a264697066735822122038c546110feed88d81e47a0f93cf70b09e9d4d4e6edba1192f7a9d23ce734f9a64736f6c634300060c0033",
  "immutableReferences": {},
  "source": "/// SPDX-License-Identifier: AGPL-3.0-or-later\npragma solidity 0.6.12;\n\n/// @title WFIL\n/// @author Nazzareno Massari @naszam\n/// @notice Wrapped Filecoin\n/// @dev All function calls are currently implemented without side effects through TDD approach\n/// @dev OpenZeppelin library is used for secure contract development\n\n/*\n    \n    \n    \n  \n      \n*/\n\nimport \"@openzeppelin/contracts/token/ERC20/ERC20.sol\";\nimport \"@openzeppelin/contracts/access/AccessControl.sol\";\nimport \"@openzeppelin/contracts/utils/Pausable.sol\";\n\ncontract WFIL is ERC20, AccessControl, Pausable {\n\n    /// @dev Roles\n    bytes32 public constant MINTER_ROLE = keccak256(\"MINTER_ROLE\");\n    bytes32 public constant PAUSER_ROLE = keccak256(\"PAUSER_ROLE\");\n\n    /// @dev Events\n    event Wrapped(address indexed to, uint256 amount);\n    event Unwrapped(address indexed account, uint256 amount);\n    event UnwrappedFrom(address indexed account, uint256 amount);\n\n    constructor(address dao_)\n        public\n        ERC20(\"Wrapped Filecoin\", \"WFIL\")\n    {\n        require(dao_ != address(0), \"WFIL: dao set to zero address\");\n        _setupRole(DEFAULT_ADMIN_ROLE, dao_);\n\n        _setupRole(PAUSER_ROLE, dao_);\n    }\n\n    /// @notice Fallback function\n    /// @dev Added not payable to revert transactions not matching any other function which send value\n    fallback() external {\n        revert(\"WFIL: function not matching any other\");\n    }\n\n    /// @notice Wrap WFIL\n    /// @dev Mint WFIL\n    /// @dev Access restricted only for Minters\n    /// @param to Address of the recipient\n    /// @param amount Amount of WFIL issued\n    /// @return True if WFIL is successfully wrapped\n    function wrap(address to, uint256 amount) external returns (bool) {\n        require(hasRole(MINTER_ROLE, msg.sender), \"WFIL: caller is not a minter\");\n        require(amount > 0, \"WFIL: amount is zero\");\n        _mint(to, amount);\n        emit Wrapped(to, amount);\n        return true;\n    }\n\n    /// @notice Unwrap WFIL\n    /// @dev Burn WFIl\n    /// @param amount The amount of WFIL to unwrap\n    /// @return True if WFIL is successfully unwrapped\n    function unwrap(uint256 amount) external returns (bool) {\n        require(amount > 0, \"WFIL: amount is zero\");\n        _burn(msg.sender, amount);\n        emit Unwrapped(msg.sender, amount);\n        return true;\n    }\n\n    function unwrapFrom(address account, uint256 amount) external returns (bool) {\n        require(amount > 0, \"WFIL: amount is zero\");\n        uint256 decreasedAllowance = allowance(account, msg.sender).sub(amount, \"WFIL: burn amount exceeds allowance\");\n\n        _approve(account, msg.sender, decreasedAllowance);\n        _burn(account, amount);\n        emit UnwrappedFrom(account, amount);\n        return true;\n    }\n\n    /// @notice Add a new Minter\n    /// @dev Access restricted only for Default Admin\n    /// @param account Address of the new Minter\n    function addMinter(address account) external returns (bool) {\n        require(hasRole(DEFAULT_ADMIN_ROLE, msg.sender), \"WFIL: caller is not the default admin\");\n        require(account != address(0), \"WFIL: account is the zero address\");\n        grantRole(MINTER_ROLE, account);\n    }\n\n    /// @notice Remove a Minter\n    /// @dev Access restricted only for Default Admin\n    /// @param account Address of the Minter\n    function removeMinter(address account) external returns (bool) {\n        require(hasRole(DEFAULT_ADMIN_ROLE, msg.sender), \"WFIL: caller is not the default admin\");\n        revokeRole(MINTER_ROLE, account);\n    }\n\n    /// @notice Pause all the functions\n    /// @dev the caller must have the 'PAUSER_ROLE'\n    function pause() external {\n        require(hasRole(PAUSER_ROLE, msg.sender), \"WFIL: must have pauser role to pause\");\n        _pause();\n    }\n\n    /// @notice Unpause all the functions\n    /// @dev the caller must have the 'PAUSER_ROLE'\n    function unpause() external {\n        require(hasRole(PAUSER_ROLE, msg.sender), \"WFIL: must have pauser role to unpause\");\n        _unpause();\n    }\n\n    /// @notice Hook to pause _mint(), _transfer() and _burn()\n    /// @dev Override ERC20 and ERC20Pausable Hooks\n    /// @param from Sender address\n    /// @param to Recipient address\n    /// @param amount Token amount\n    function _beforeTokenTransfer(address from, address to, uint256 amount) internal override(ERC20) {\n        require(to != address(this), \"WFIL: transfer to the token contract\");\n        super._beforeTokenTransfer(from, to, amount);\n        require(!paused(), \"WFIL: token transfer while paused\");\n    }\n}\n",
  "sourcePath": "/home/hackfs/wfil-dao/contracts/WFIL.sol",
  "compiler": {
    "name": "solc",
    "version": "0.6.12+commit.27d51765.Emscripten.clang"
  },
  "schemaVersion": "3.3.1",
  "updatedAt": "2020-11-30T23:56:48.915Z",
  "networkType": "ethereum",
  "devdoc": {
    "events": {
      "Wrapped(address,uint256)": {
        "details": "Events"
      }
    },
    "kind": "dev",
    "methods": {
      "addMinter(address)": {
        "details": "Access restricted only for Default Admin",
        "params": {
          "account": "Address of the new Minter"
        }
      },
      "allowance(address,address)": {
        "details": "See {IERC20-allowance}."
      },
      "approve(address,uint256)": {
        "details": "See {IERC20-approve}. Requirements: - `spender` cannot be the zero address."
      },
      "balanceOf(address)": {
        "details": "See {IERC20-balanceOf}."
      },
      "decimals()": {
        "details": "Returns the number of decimals used to get its user representation. For example, if `decimals` equals `2`, a balance of `505` tokens should be displayed to a user as `5,05` (`505 / 10 ** 2`). Tokens usually opt for a value of 18, imitating the relationship between Ether and Wei. This is the value {ERC20} uses, unless {_setupDecimals} is called. NOTE: This information is only used for _display_ purposes: it in no way affects any of the arithmetic of the contract, including {IERC20-balanceOf} and {IERC20-transfer}."
      },
      "decreaseAllowance(address,uint256)": {
        "details": "Atomically decreases the allowance granted to `spender` by the caller. This is an alternative to {approve} that can be used as a mitigation for problems described in {IERC20-approve}. Emits an {Approval} event indicating the updated allowance. Requirements: - `spender` cannot be the zero address. - `spender` must have allowance for the caller of at least `subtractedValue`."
      },
      "getRoleAdmin(bytes32)": {
        "details": "Returns the admin role that controls `role`. See {grantRole} and {revokeRole}. To change a role's admin, use {_setRoleAdmin}."
      },
      "getRoleMember(bytes32,uint256)": {
        "details": "Returns one of the accounts that have `role`. `index` must be a value between 0 and {getRoleMemberCount}, non-inclusive. Role bearers are not sorted in any particular way, and their ordering may change at any point. WARNING: When using {getRoleMember} and {getRoleMemberCount}, make sure you perform all queries on the same block. See the following https://forum.openzeppelin.com/t/iterating-over-elements-on-enumerableset-in-openzeppelin-contracts/2296[forum post] for more information."
      },
      "getRoleMemberCount(bytes32)": {
        "details": "Returns the number of accounts that have `role`. Can be used together with {getRoleMember} to enumerate all bearers of a role."
      },
      "grantRole(bytes32,address)": {
        "details": "Grants `role` to `account`. If `account` had not been already granted `role`, emits a {RoleGranted} event. Requirements: - the caller must have ``role``'s admin role."
      },
      "hasRole(bytes32,address)": {
        "details": "Returns `true` if `account` has been granted `role`."
      },
      "increaseAllowance(address,uint256)": {
        "details": "Atomically increases the allowance granted to `spender` by the caller. This is an alternative to {approve} that can be used as a mitigation for problems described in {IERC20-approve}. Emits an {Approval} event indicating the updated allowance. Requirements: - `spender` cannot be the zero address."
      },
      "name()": {
        "details": "Returns the name of the token."
      },
      "pause()": {
        "details": "the caller must have the 'PAUSER_ROLE'"
      },
      "paused()": {
        "details": "Returns true if the contract is paused, and false otherwise."
      },
      "removeMinter(address)": {
        "details": "Access restricted only for Default Admin",
        "params": {
          "account": "Address of the Minter"
        }
      },
      "renounceRole(bytes32,address)": {
        "details": "Revokes `role` from the calling account. Roles are often managed via {grantRole} and {revokeRole}: this function's purpose is to provide a mechanism for accounts to lose their privileges if they are compromised (such as when a trusted device is misplaced). If the calling account had been granted `role`, emits a {RoleRevoked} event. Requirements: - the caller must be `account`."
      },
      "revokeRole(bytes32,address)": {
        "details": "Revokes `role` from `account`. If `account` had been granted `role`, emits a {RoleRevoked} event. Requirements: - the caller must have ``role``'s admin role."
      },
      "symbol()": {
        "details": "Returns the symbol of the token, usually a shorter version of the name."
      },
      "totalSupply()": {
        "details": "See {IERC20-totalSupply}."
      },
      "transfer(address,uint256)": {
        "details": "See {IERC20-transfer}. Requirements: - `recipient` cannot be the zero address. - the caller must have a balance of at least `amount`."
      },
      "transferFrom(address,address,uint256)": {
        "details": "See {IERC20-transferFrom}. Emits an {Approval} event indicating the updated allowance. This is not required by the EIP. See the note at the beginning of {ERC20}. Requirements: - `sender` and `recipient` cannot be the zero address. - `sender` must have a balance of at least `amount`. - the caller must have allowance for ``sender``'s tokens of at least `amount`."
      },
      "unpause()": {
        "details": "the caller must have the 'PAUSER_ROLE'"
      },
      "unwrap(uint256)": {
        "details": "Burn WFIl",
        "params": {
          "amount": "The amount of WFIL to unwrap"
        },
        "returns": {
          "_0": "True if WFIL is successfully unwrapped"
        }
      },
      "wrap(address,uint256)": {
        "details": "Mint WFILAccess restricted only for Minters",
        "params": {
          "amount": "Amount of WFIL issued",
          "to": "Address of the recipient"
        },
        "returns": {
          "_0": "True if WFIL is successfully wrapped"
        }
      }
    },
    "stateVariables": {
      "MINTER_ROLE": {
        "details": "Roles"
      }
    },
    "version": 1
  },
  "userdoc": {
    "kind": "user",
    "methods": {
      "addMinter(address)": {
        "notice": "Add a new Minter"
      },
      "pause()": {
        "notice": "Pause all the functions"
      },
      "removeMinter(address)": {
        "notice": "Remove a Minter"
      },
      "unpause()": {
        "notice": "Unpause all the functions"
      },
      "unwrap(uint256)": {
        "notice": "Unwrap WFIL"
      },
      "wrap(address,uint256)": {
        "notice": "Wrap WFIL"
      }
    },
    "version": 1
  }
}